{
  "_format": "hh-sol-artifact-1",
  "contractName": "DualStakingBasket",
  "sourceName": "contracts/DualStakingBasket.sol",
  "abi": [
    {
      "inputs": [
        {
          "internalType": "address",
          "name": "_basketToken",
          "type": "address"
        },
        {
          "internalType": "address",
          "name": "_priceFeed",
          "type": "address"
        },
        {
          "internalType": "address",
          "name": "_coreToken",
          "type": "address"
        },
        {
          "internalType": "address",
          "name": "_btcToken",
          "type": "address"
        },
        {
          "internalType": "address",
          "name": "_dualStakingContract",
          "type": "address"
        },
        {
          "internalType": "address",
          "name": "_feeRecipient",
          "type": "address"
        },
        {
          "internalType": "enum DualStakingBasket.StakingTier",
          "name": "_targetTier",
          "type": "uint8"
        },
        {
          "internalType": "address",
          "name": "initialOwner",
          "type": "address"
        }
      ],
      "stateMutability": "nonpayable",
      "type": "constructor"
    },
    {
      "inputs": [],
      "name": "EnforcedPause",
      "type": "error"
    },
    {
      "inputs": [],
      "name": "ExpectedPause",
      "type": "error"
    },
    {
      "inputs": [
        {
          "internalType": "address",
          "name": "owner",
          "type": "address"
        }
      ],
      "name": "OwnableInvalidOwner",
      "type": "error"
    },
    {
      "inputs": [
        {
          "internalType": "address",
          "name": "account",
          "type": "address"
        }
      ],
      "name": "OwnableUnauthorizedAccount",
      "type": "error"
    },
    {
      "inputs": [],
      "name": "ReentrancyGuardReentrantCall",
      "type": "error"
    },
    {
      "anonymous": false,
      "inputs": [
        {
          "indexed": false,
          "internalType": "string",
          "name": "reason",
          "type": "string"
        }
      ],
      "name": "CircuitBreakerTriggered",
      "type": "event"
    },
    {
      "anonymous": false,
      "inputs": [
        {
          "indexed": true,
          "internalType": "address",
          "name": "user",
          "type": "address"
        },
        {
          "indexed": false,
          "internalType": "uint256",
          "name": "coreAmount",
          "type": "uint256"
        },
        {
          "indexed": false,
          "internalType": "uint256",
          "name": "btcAmount",
          "type": "uint256"
        },
        {
          "indexed": false,
          "internalType": "uint256",
          "name": "shares",
          "type": "uint256"
        }
      ],
      "name": "Deposited",
      "type": "event"
    },
    {
      "anonymous": false,
      "inputs": [
        {
          "indexed": true,
          "internalType": "address",
          "name": "keeper",
          "type": "address"
        },
        {
          "indexed": false,
          "internalType": "uint256",
          "name": "reward",
          "type": "uint256"
        }
      ],
      "name": "KeeperRewardPaid",
      "type": "event"
    },
    {
      "anonymous": false,
      "inputs": [
        {
          "indexed": true,
          "internalType": "address",
          "name": "previousOwner",
          "type": "address"
        },
        {
          "indexed": true,
          "internalType": "address",
          "name": "newOwner",
          "type": "address"
        }
      ],
      "name": "OwnershipTransferred",
      "type": "event"
    },
    {
      "anonymous": false,
      "inputs": [
        {
          "indexed": false,
          "internalType": "address",
          "name": "account",
          "type": "address"
        }
      ],
      "name": "Paused",
      "type": "event"
    },
    {
      "anonymous": false,
      "inputs": [
        {
          "indexed": false,
          "internalType": "uint256",
          "name": "coreSwapped",
          "type": "uint256"
        },
        {
          "indexed": false,
          "internalType": "uint256",
          "name": "btcSwapped",
          "type": "uint256"
        },
        {
          "indexed": false,
          "internalType": "enum DualStakingBasket.StakingTier",
          "name": "currentTier",
          "type": "uint8"
        },
        {
          "indexed": false,
          "internalType": "address",
          "name": "keeper",
          "type": "address"
        }
      ],
      "name": "Rebalanced",
      "type": "event"
    },
    {
      "anonymous": false,
      "inputs": [
        {
          "indexed": false,
          "internalType": "string",
          "name": "reason",
          "type": "string"
        }
      ],
      "name": "RebalancingPaused",
      "type": "event"
    },
    {
      "anonymous": false,
      "inputs": [],
      "name": "RebalancingResumed",
      "type": "event"
    },
    {
      "anonymous": false,
      "inputs": [
        {
          "indexed": true,
          "internalType": "address",
          "name": "user",
          "type": "address"
        },
        {
          "indexed": false,
          "internalType": "uint256",
          "name": "shares",
          "type": "uint256"
        },
        {
          "indexed": false,
          "internalType": "uint256",
          "name": "coreAmount",
          "type": "uint256"
        },
        {
          "indexed": false,
          "internalType": "uint256",
          "name": "btcAmount",
          "type": "uint256"
        }
      ],
      "name": "Redeemed",
      "type": "event"
    },
    {
      "anonymous": false,
      "inputs": [
        {
          "indexed": false,
          "internalType": "uint256",
          "name": "rewards",
          "type": "uint256"
        },
        {
          "indexed": false,
          "internalType": "uint256",
          "name": "coreRewards",
          "type": "uint256"
        },
        {
          "indexed": false,
          "internalType": "uint256",
          "name": "btcRewards",
          "type": "uint256"
        }
      ],
      "name": "RewardsCompounded",
      "type": "event"
    },
    {
      "anonymous": false,
      "inputs": [
        {
          "indexed": true,
          "internalType": "address",
          "name": "router",
          "type": "address"
        },
        {
          "indexed": false,
          "internalType": "bool",
          "name": "approved",
          "type": "bool"
        }
      ],
      "name": "RouterApproved",
      "type": "event"
    },
    {
      "anonymous": false,
      "inputs": [
        {
          "indexed": false,
          "internalType": "enum DualStakingBasket.StakingTier",
          "name": "tier",
          "type": "uint8"
        },
        {
          "indexed": false,
          "internalType": "uint256",
          "name": "newRatio",
          "type": "uint256"
        }
      ],
      "name": "TierRatioUpdated",
      "type": "event"
    },
    {
      "anonymous": false,
      "inputs": [
        {
          "indexed": true,
          "internalType": "enum DualStakingBasket.StakingTier",
          "name": "tier",
          "type": "uint8"
        },
        {
          "indexed": false,
          "internalType": "uint256",
          "name": "ratio",
          "type": "uint256"
        }
      ],
      "name": "TierTargetSet",
      "type": "event"
    },
    {
      "anonymous": false,
      "inputs": [
        {
          "indexed": false,
          "internalType": "address",
          "name": "account",
          "type": "address"
        }
      ],
      "name": "Unpaused",
      "type": "event"
    },
    {
      "inputs": [],
      "name": "_executeRebalance",
      "outputs": [],
      "stateMutability": "nonpayable",
      "type": "function"
    },
    {
      "inputs": [],
      "name": "basketToken",
      "outputs": [
        {
          "internalType": "contract StakeBasketToken",
          "name": "",
          "type": "address"
        }
      ],
      "stateMutability": "view",
      "type": "function"
    },
    {
      "inputs": [],
      "name": "btcToken",
      "outputs": [
        {
          "internalType": "contract IERC20",
          "name": "",
          "type": "address"
        }
      ],
      "stateMutability": "view",
      "type": "function"
    },
    {
      "inputs": [],
      "name": "compoundRewards",
      "outputs": [],
      "stateMutability": "nonpayable",
      "type": "function"
    },
    {
      "inputs": [],
      "name": "coreToken",
      "outputs": [
        {
          "internalType": "contract IERC20",
          "name": "",
          "type": "address"
        }
      ],
      "stateMutability": "view",
      "type": "function"
    },
    {
      "inputs": [
        {
          "internalType": "uint256",
          "name": "coreAmount",
          "type": "uint256"
        },
        {
          "internalType": "uint256",
          "name": "btcAmount",
          "type": "uint256"
        }
      ],
      "name": "deposit",
      "outputs": [],
      "stateMutability": "nonpayable",
      "type": "function"
    },
    {
      "inputs": [
        {
          "internalType": "uint256",
          "name": "btcAmount",
          "type": "uint256"
        }
      ],
      "name": "depositNativeCORE",
      "outputs": [],
      "stateMutability": "payable",
      "type": "function"
    },
    {
      "inputs": [],
      "name": "dualStakingContract",
      "outputs": [
        {
          "internalType": "contract IDualStaking",
          "name": "",
          "type": "address"
        }
      ],
      "stateMutability": "view",
      "type": "function"
    },
    {
      "inputs": [
        {
          "internalType": "address",
          "name": "token",
          "type": "address"
        },
        {
          "internalType": "uint256",
          "name": "amount",
          "type": "uint256"
        }
      ],
      "name": "emergencyWithdraw",
      "outputs": [],
      "stateMutability": "nonpayable",
      "type": "function"
    },
    {
      "inputs": [],
      "name": "feeRecipient",
      "outputs": [
        {
          "internalType": "address",
          "name": "",
          "type": "address"
        }
      ],
      "stateMutability": "view",
      "type": "function"
    },
    {
      "inputs": [],
      "name": "getBasketComposition",
      "outputs": [
        {
          "internalType": "string[]",
          "name": "assetNames",
          "type": "string[]"
        },
        {
          "internalType": "string[]",
          "name": "assetSymbols",
          "type": "string[]"
        },
        {
          "internalType": "uint256[]",
          "name": "allocations",
          "type": "uint256[]"
        },
        {
          "internalType": "uint256[]",
          "name": "values",
          "type": "uint256[]"
        },
        {
          "internalType": "uint256",
          "name": "totalValue",
          "type": "uint256"
        }
      ],
      "stateMutability": "view",
      "type": "function"
    },
    {
      "inputs": [],
      "name": "getCurrentTierStatus",
      "outputs": [
        {
          "internalType": "enum DualStakingBasket.StakingTier",
          "name": "currentTier",
          "type": "uint8"
        },
        {
          "internalType": "uint256",
          "name": "currentRatio",
          "type": "uint256"
        },
        {
          "internalType": "uint256",
          "name": "targetRatio_",
          "type": "uint256"
        },
        {
          "internalType": "bool",
          "name": "needsRebalance",
          "type": "bool"
        }
      ],
      "stateMutability": "view",
      "type": "function"
    },
    {
      "inputs": [
        {
          "internalType": "uint256",
          "name": "usdAmount",
          "type": "uint256"
        }
      ],
      "name": "getOptimalDepositAmounts",
      "outputs": [
        {
          "internalType": "uint256",
          "name": "recommendedCoreAmount",
          "type": "uint256"
        },
        {
          "internalType": "uint256",
          "name": "recommendedBtcAmount",
          "type": "uint256"
        },
        {
          "internalType": "string",
          "name": "rationale",
          "type": "string"
        },
        {
          "internalType": "enum DualStakingBasket.StakingTier",
          "name": "achievableTier",
          "type": "uint8"
        }
      ],
      "stateMutability": "view",
      "type": "function"
    },
    {
      "inputs": [],
      "name": "getPoolInfo",
      "outputs": [
        {
          "internalType": "uint256",
          "name": "totalCORE",
          "type": "uint256"
        },
        {
          "internalType": "uint256",
          "name": "totalBTC",
          "type": "uint256"
        },
        {
          "internalType": "uint256",
          "name": "stakedCORE",
          "type": "uint256"
        },
        {
          "internalType": "uint256",
          "name": "stakedBTC",
          "type": "uint256"
        },
        {
          "internalType": "uint256",
          "name": "totalValueUSD",
          "type": "uint256"
        },
        {
          "internalType": "uint256",
          "name": "sharePrice",
          "type": "uint256"
        }
      ],
      "stateMutability": "view",
      "type": "function"
    },
    {
      "inputs": [],
      "name": "getRebalanceInfo",
      "outputs": [
        {
          "internalType": "bool",
          "name": "isPaused",
          "type": "bool"
        },
        {
          "internalType": "uint256",
          "name": "lastRebalance",
          "type": "uint256"
        },
        {
          "internalType": "uint256",
          "name": "failureCount",
          "type": "uint256"
        },
        {
          "internalType": "uint256",
          "name": "totalRebalances",
          "type": "uint256"
        },
        {
          "internalType": "bool",
          "name": "canRebalance",
          "type": "bool"
        }
      ],
      "stateMutability": "view",
      "type": "function"
    },
    {
      "inputs": [],
      "name": "getStrategyInfo",
      "outputs": [
        {
          "internalType": "string",
          "name": "strategyName",
          "type": "string"
        },
        {
          "internalType": "string",
          "name": "description",
          "type": "string"
        },
        {
          "internalType": "string",
          "name": "riskLevel",
          "type": "string"
        },
        {
          "internalType": "uint256",
          "name": "currentAPY",
          "type": "uint256"
        },
        {
          "internalType": "string",
          "name": "targetTierName",
          "type": "string"
        }
      ],
      "stateMutability": "view",
      "type": "function"
    },
    {
      "inputs": [],
      "name": "getTierBenefits",
      "outputs": [
        {
          "internalType": "string[]",
          "name": "tierNames",
          "type": "string[]"
        },
        {
          "internalType": "uint256[]",
          "name": "ratioRequirements",
          "type": "uint256[]"
        },
        {
          "internalType": "uint256[]",
          "name": "apyBoosts",
          "type": "uint256[]"
        },
        {
          "internalType": "string[]",
          "name": "descriptions",
          "type": "string[]"
        }
      ],
      "stateMutability": "view",
      "type": "function"
    },
    {
      "inputs": [
        {
          "internalType": "address",
          "name": "user",
          "type": "address"
        }
      ],
      "name": "getUserPosition",
      "outputs": [
        {
          "internalType": "uint256",
          "name": "basketTokenBalance",
          "type": "uint256"
        },
        {
          "internalType": "uint256",
          "name": "valueInUSD",
          "type": "uint256"
        },
        {
          "internalType": "uint256",
          "name": "coreEquivalent",
          "type": "uint256"
        },
        {
          "internalType": "uint256",
          "name": "btcEquivalent",
          "type": "uint256"
        },
        {
          "internalType": "uint256",
          "name": "shareOfPool",
          "type": "uint256"
        }
      ],
      "stateMutability": "view",
      "type": "function"
    },
    {
      "inputs": [
        {
          "internalType": "address",
          "name": "router",
          "type": "address"
        }
      ],
      "name": "isTrustedRouter",
      "outputs": [
        {
          "internalType": "bool",
          "name": "",
          "type": "bool"
        }
      ],
      "stateMutability": "view",
      "type": "function"
    },
    {
      "inputs": [],
      "name": "keeperReward",
      "outputs": [
        {
          "internalType": "uint256",
          "name": "",
          "type": "uint256"
        }
      ],
      "stateMutability": "view",
      "type": "function"
    },
    {
      "inputs": [],
      "name": "lastFeeCollection",
      "outputs": [
        {
          "internalType": "uint256",
          "name": "",
          "type": "uint256"
        }
      ],
      "stateMutability": "view",
      "type": "function"
    },
    {
      "inputs": [],
      "name": "lastRebalanceFailure",
      "outputs": [
        {
          "internalType": "uint256",
          "name": "",
          "type": "uint256"
        }
      ],
      "stateMutability": "view",
      "type": "function"
    },
    {
      "inputs": [],
      "name": "lastRebalanceTime",
      "outputs": [
        {
          "internalType": "uint256",
          "name": "",
          "type": "uint256"
        }
      ],
      "stateMutability": "view",
      "type": "function"
    },
    {
      "inputs": [],
      "name": "managementFee",
      "outputs": [
        {
          "internalType": "uint256",
          "name": "",
          "type": "uint256"
        }
      ],
      "stateMutability": "view",
      "type": "function"
    },
    {
      "inputs": [],
      "name": "maxRebalanceFailures",
      "outputs": [
        {
          "internalType": "uint256",
          "name": "",
          "type": "uint256"
        }
      ],
      "stateMutability": "view",
      "type": "function"
    },
    {
      "inputs": [],
      "name": "maxSlippage",
      "outputs": [
        {
          "internalType": "uint256",
          "name": "",
          "type": "uint256"
        }
      ],
      "stateMutability": "view",
      "type": "function"
    },
    {
      "inputs": [],
      "name": "minBtcDeposit",
      "outputs": [
        {
          "internalType": "uint256",
          "name": "",
          "type": "uint256"
        }
      ],
      "stateMutability": "view",
      "type": "function"
    },
    {
      "inputs": [],
      "name": "minCoreDeposit",
      "outputs": [
        {
          "internalType": "uint256",
          "name": "",
          "type": "uint256"
        }
      ],
      "stateMutability": "view",
      "type": "function"
    },
    {
      "inputs": [],
      "name": "minRebalanceInterval",
      "outputs": [
        {
          "internalType": "uint256",
          "name": "",
          "type": "uint256"
        }
      ],
      "stateMutability": "view",
      "type": "function"
    },
    {
      "inputs": [],
      "name": "minUsdValue",
      "outputs": [
        {
          "internalType": "uint256",
          "name": "",
          "type": "uint256"
        }
      ],
      "stateMutability": "view",
      "type": "function"
    },
    {
      "inputs": [],
      "name": "needsRebalancing",
      "outputs": [
        {
          "internalType": "bool",
          "name": "",
          "type": "bool"
        }
      ],
      "stateMutability": "view",
      "type": "function"
    },
    {
      "inputs": [],
      "name": "owner",
      "outputs": [
        {
          "internalType": "address",
          "name": "",
          "type": "address"
        }
      ],
      "stateMutability": "view",
      "type": "function"
    },
    {
      "inputs": [],
      "name": "pause",
      "outputs": [],
      "stateMutability": "nonpayable",
      "type": "function"
    },
    {
      "inputs": [
        {
          "internalType": "string",
          "name": "reason",
          "type": "string"
        }
      ],
      "name": "pauseRebalancing",
      "outputs": [],
      "stateMutability": "nonpayable",
      "type": "function"
    },
    {
      "inputs": [],
      "name": "paused",
      "outputs": [
        {
          "internalType": "bool",
          "name": "",
          "type": "bool"
        }
      ],
      "stateMutability": "view",
      "type": "function"
    },
    {
      "inputs": [],
      "name": "performanceFee",
      "outputs": [
        {
          "internalType": "uint256",
          "name": "",
          "type": "uint256"
        }
      ],
      "stateMutability": "view",
      "type": "function"
    },
    {
      "inputs": [],
      "name": "priceFeed",
      "outputs": [
        {
          "internalType": "contract PriceFeed",
          "name": "",
          "type": "address"
        }
      ],
      "stateMutability": "view",
      "type": "function"
    },
    {
      "inputs": [],
      "name": "rebalance",
      "outputs": [],
      "stateMutability": "nonpayable",
      "type": "function"
    },
    {
      "inputs": [],
      "name": "rebalanceCount",
      "outputs": [
        {
          "internalType": "uint256",
          "name": "",
          "type": "uint256"
        }
      ],
      "stateMutability": "view",
      "type": "function"
    },
    {
      "inputs": [],
      "name": "rebalanceFailureCount",
      "outputs": [
        {
          "internalType": "uint256",
          "name": "",
          "type": "uint256"
        }
      ],
      "stateMutability": "view",
      "type": "function"
    },
    {
      "inputs": [],
      "name": "rebalanceThreshold",
      "outputs": [
        {
          "internalType": "uint256",
          "name": "",
          "type": "uint256"
        }
      ],
      "stateMutability": "view",
      "type": "function"
    },
    {
      "inputs": [],
      "name": "rebalancingPaused",
      "outputs": [
        {
          "internalType": "bool",
          "name": "",
          "type": "bool"
        }
      ],
      "stateMutability": "view",
      "type": "function"
    },
    {
      "inputs": [
        {
          "internalType": "uint256",
          "name": "shares",
          "type": "uint256"
        }
      ],
      "name": "redeem",
      "outputs": [],
      "stateMutability": "nonpayable",
      "type": "function"
    },
    {
      "inputs": [],
      "name": "renounceOwnership",
      "outputs": [],
      "stateMutability": "nonpayable",
      "type": "function"
    },
    {
      "inputs": [],
      "name": "resumeRebalancing",
      "outputs": [],
      "stateMutability": "nonpayable",
      "type": "function"
    },
    {
      "inputs": [
        {
          "internalType": "address",
          "name": "_dualStakingContract",
          "type": "address"
        }
      ],
      "name": "setDualStakingContract",
      "outputs": [],
      "stateMutability": "nonpayable",
      "type": "function"
    },
    {
      "inputs": [
        {
          "internalType": "uint256",
          "name": "_reward",
          "type": "uint256"
        }
      ],
      "name": "setKeeperReward",
      "outputs": [],
      "stateMutability": "nonpayable",
      "type": "function"
    },
    {
      "inputs": [
        {
          "internalType": "uint256",
          "name": "_slippage",
          "type": "uint256"
        }
      ],
      "name": "setMaxSlippage",
      "outputs": [],
      "stateMutability": "nonpayable",
      "type": "function"
    },
    {
      "inputs": [
        {
          "internalType": "uint256",
          "name": "_interval",
          "type": "uint256"
        }
      ],
      "name": "setMinRebalanceInterval",
      "outputs": [],
      "stateMutability": "nonpayable",
      "type": "function"
    },
    {
      "inputs": [
        {
          "internalType": "uint256",
          "name": "_minCore",
          "type": "uint256"
        },
        {
          "internalType": "uint256",
          "name": "_minBtc",
          "type": "uint256"
        },
        {
          "internalType": "uint256",
          "name": "_minUsd",
          "type": "uint256"
        }
      ],
      "name": "setMinimumDeposits",
      "outputs": [],
      "stateMutability": "nonpayable",
      "type": "function"
    },
    {
      "inputs": [
        {
          "internalType": "address",
          "name": "_priceFeed",
          "type": "address"
        }
      ],
      "name": "setPriceFeed",
      "outputs": [],
      "stateMutability": "nonpayable",
      "type": "function"
    },
    {
      "inputs": [
        {
          "internalType": "uint256",
          "name": "_threshold",
          "type": "uint256"
        }
      ],
      "name": "setRebalanceThreshold",
      "outputs": [],
      "stateMutability": "nonpayable",
      "type": "function"
    },
    {
      "inputs": [
        {
          "internalType": "address",
          "name": "_router",
          "type": "address"
        }
      ],
      "name": "setSwapRouter",
      "outputs": [],
      "stateMutability": "nonpayable",
      "type": "function"
    },
    {
      "inputs": [
        {
          "internalType": "enum DualStakingBasket.StakingTier",
          "name": "_tier",
          "type": "uint8"
        }
      ],
      "name": "setTargetTier",
      "outputs": [],
      "stateMutability": "nonpayable",
      "type": "function"
    },
    {
      "inputs": [
        {
          "internalType": "enum DualStakingBasket.StakingTier",
          "name": "_tier",
          "type": "uint8"
        },
        {
          "internalType": "uint256",
          "name": "_maxBonus",
          "type": "uint256"
        }
      ],
      "name": "setTierMaxBonus",
      "outputs": [],
      "stateMutability": "nonpayable",
      "type": "function"
    },
    {
      "inputs": [
        {
          "internalType": "enum DualStakingBasket.StakingTier",
          "name": "_tier",
          "type": "uint8"
        },
        {
          "internalType": "uint256",
          "name": "_minUSD",
          "type": "uint256"
        },
        {
          "internalType": "uint256",
          "name": "_maxUSD",
          "type": "uint256"
        }
      ],
      "name": "setTierThresholds",
      "outputs": [],
      "stateMutability": "nonpayable",
      "type": "function"
    },
    {
      "inputs": [
        {
          "internalType": "address",
          "name": "_router",
          "type": "address"
        },
        {
          "internalType": "bool",
          "name": "_trusted",
          "type": "bool"
        }
      ],
      "name": "setTrustedRouter",
      "outputs": [],
      "stateMutability": "nonpayable",
      "type": "function"
    },
    {
      "inputs": [],
      "name": "swapRouter",
      "outputs": [
        {
          "internalType": "address",
          "name": "",
          "type": "address"
        }
      ],
      "stateMutability": "view",
      "type": "function"
    },
    {
      "inputs": [],
      "name": "targetRatio",
      "outputs": [
        {
          "internalType": "uint256",
          "name": "",
          "type": "uint256"
        }
      ],
      "stateMutability": "view",
      "type": "function"
    },
    {
      "inputs": [],
      "name": "targetTier",
      "outputs": [
        {
          "internalType": "enum DualStakingBasket.StakingTier",
          "name": "",
          "type": "uint8"
        }
      ],
      "stateMutability": "view",
      "type": "function"
    },
    {
      "inputs": [
        {
          "internalType": "enum DualStakingBasket.StakingTier",
          "name": "",
          "type": "uint8"
        }
      ],
      "name": "tierMaxBonus",
      "outputs": [
        {
          "internalType": "uint256",
          "name": "",
          "type": "uint256"
        }
      ],
      "stateMutability": "view",
      "type": "function"
    },
    {
      "inputs": [
        {
          "internalType": "enum DualStakingBasket.StakingTier",
          "name": "",
          "type": "uint8"
        }
      ],
      "name": "tierMaxUSD",
      "outputs": [
        {
          "internalType": "uint256",
          "name": "",
          "type": "uint256"
        }
      ],
      "stateMutability": "view",
      "type": "function"
    },
    {
      "inputs": [
        {
          "internalType": "enum DualStakingBasket.StakingTier",
          "name": "",
          "type": "uint8"
        }
      ],
      "name": "tierMinUSD",
      "outputs": [
        {
          "internalType": "uint256",
          "name": "",
          "type": "uint256"
        }
      ],
      "stateMutability": "view",
      "type": "function"
    },
    {
      "inputs": [
        {
          "internalType": "enum DualStakingBasket.StakingTier",
          "name": "",
          "type": "uint8"
        }
      ],
      "name": "tierRatios",
      "outputs": [
        {
          "internalType": "uint256",
          "name": "",
          "type": "uint256"
        }
      ],
      "stateMutability": "view",
      "type": "function"
    },
    {
      "inputs": [],
      "name": "totalPooledBTC",
      "outputs": [
        {
          "internalType": "uint256",
          "name": "",
          "type": "uint256"
        }
      ],
      "stateMutability": "view",
      "type": "function"
    },
    {
      "inputs": [],
      "name": "totalPooledCORE",
      "outputs": [
        {
          "internalType": "uint256",
          "name": "",
          "type": "uint256"
        }
      ],
      "stateMutability": "view",
      "type": "function"
    },
    {
      "inputs": [],
      "name": "totalStakedBTC",
      "outputs": [
        {
          "internalType": "uint256",
          "name": "",
          "type": "uint256"
        }
      ],
      "stateMutability": "view",
      "type": "function"
    },
    {
      "inputs": [],
      "name": "totalStakedCORE",
      "outputs": [
        {
          "internalType": "uint256",
          "name": "",
          "type": "uint256"
        }
      ],
      "stateMutability": "view",
      "type": "function"
    },
    {
      "inputs": [
        {
          "internalType": "address",
          "name": "newOwner",
          "type": "address"
        }
      ],
      "name": "transferOwnership",
      "outputs": [],
      "stateMutability": "nonpayable",
      "type": "function"
    },
    {
      "inputs": [
        {
          "internalType": "address",
          "name": "",
          "type": "address"
        }
      ],
      "name": "trustedRouters",
      "outputs": [
        {
          "internalType": "bool",
          "name": "",
          "type": "bool"
        }
      ],
      "stateMutability": "view",
      "type": "function"
    },
    {
      "inputs": [],
      "name": "unpause",
      "outputs": [],
      "stateMutability": "nonpayable",
      "type": "function"
    },
    {
      "inputs": [
        {
          "internalType": "enum DualStakingBasket.StakingTier",
          "name": "_tier",
          "type": "uint8"
        },
        {
          "internalType": "uint256",
          "name": "_ratio",
          "type": "uint256"
        }
      ],
      "name": "updateTierRatio",
      "outputs": [],
      "stateMutability": "nonpayable",
      "type": "function"
    },
    {
      "stateMutability": "payable",
      "type": "receive"
    }
  ],
  "bytecode": "0x60a034620004ac57601f620058bb38819003918201601f191683019291906001600160401b03841183851017620004b157816101009284926040968752833981010312620004ac576200005281620004c7565b60209062000062828401620004c7565b6200006f858501620004c7565b6200007d60608601620004c7565b946200008c60808201620004c7565b936200009b60a08301620004c7565b9160c08101519560049182881015620004ac5760e0620000bc9101620004c7565b60019560009a878c5560018060a01b0380931680156200049457918391899795938f9997958f907f8be0079c531659141344cd1fd0a4f28419497f9722a3daafe3b4186f6b6457e0908b549c8d9c8560018060a01b03199e8f16179055519c169180a3678ac7230489e80000600b55620186a09889600c556032600d556101f460125560c8601355610e10601755600a60185560039b8c601b558460649889601e556103e8601f55169182156200044a5750841691821562000407578416948515620003c45784169788156200036e5784169687156200031b5750918f9e9d9b999795939160079d9b9997959360805287600254161760025516806200030d575b50848254161790556005549288541617875560ff60a01b8660a01b169160018060a81b031916171760055586805285855269010f0cf064dd592000008888205581875269021e19e0c9bab2400000888820556002875269043c33c19375648000008888205582875269054b40b1f852bda0000088882055868052600885526103e8888820556009855261271080898920558288526008865288882055600985528088882055600287526008855287872055600984526207a120808888205582875260088552878720556009845260001987872055858052600a84526109c4878720558552610dac86862055600285526113888686205584526117708585205583525220546006554260215542601655516153de9081620004dd82396080518181816103cf0152818161056d0152818161074b01528181610a4a015281816121b50152818161235801526150750152f35b8589541617885538620001bd565b935050505060849350611b9d60f21b91508a8d519362461bcd60e51b8552840152602260248401527f4475616c5374616b696e673a20696e76616c69642066656520726563697069656044840152820152fd5b508f5162461bcd60e51b81528087018f9052602a60248201527f4475616c5374616b696e673a20696e76616c6964206475616c207374616b696e60448201526919c818dbdb9d1c9858dd60b21b81890152608490fd5b508f5162461bcd60e51b81528087018f9052601e60248201527f4475616c5374616b696e673a20696e76616c69642062746320746f6b656e000060448201528790fd5b508f5162461bcd60e51b81528087018f9052601f60248201527f4475616c5374616b696e673a20696e76616c696420707269636520666565640060448201528790fd5b8f90603760f91b8a6084938b62461bcd60e51b8552840152602160248401527f4475616c5374616b696e673a20696e76616c6964206261736b657420746f6b656044840152820152fd5b508c51631e4fbdf760e01b81528086018d9052602490fd5b600080fd5b634e487b7160e01b600052604160045260246000fd5b51906001600160a01b0382168203620004ac5756fe60406080815260049081361015610020575b5050361561001e57600080fd5b005b600091823560e01c90816305a62b9014613123578163074bc101146130fb578163095692db146130d5578163096a3a74146130b65781630c2b72e91461308d57816317a9e1981461306e5781631b468dc9146130215781631c1ed5cd14612ff85781631c650e1414612fd9578163264e97e014612a2b5781632df12e5114612eb05781632efebd9d14612e87578163315e510114612e685781633457c93614612e4957816336cb912414612baf5781633dfe9f6a14612b905781633e3eb33114612b715781633f4ba83a14612b015781634127365714612ac157816343f68a4914612a915781634690484014612a6957816347a56e3814612a2b5781634e18f760146129b95781634f5d0d5a1461299057816357bf53cc1461264a5781635a08bd171461262b5781635b7c2dad1461231f5781635c975abb146122f857816360246c881461217657816363a0b38c146121575781636c252eb2146121385781636d20d2a4146121195781637053113e146120fa578163715018a61461209d57816371aa78a214612071578163724e78da14611fe3578163741bef1a14611fba5781637d7c2a1c14611f925781638456cb5914611f315781638778878214611f125781638c04166f14611ef35781638da5cb5b14611eca5781638e6a593414611e575781638f8b651514611de5578163906317af14611d4257816395ccea6714611c4b5781639613092d14611a8457816396bad84414611a655781639797fab8146119f457816397e39739146118da578163a6f7f5d6146118bb578163a9ec75f61461189c578163ba1aec551461187d578163ba281fc214611561578163be6af72b14611542578163c00c9f7f1461116d578163c31c9c0714611144578163c51403781461102c578163c64f535114610f63578163c6e2e12114610f15578163d84db79614610e7d578163d9ca21d514610e5e578163da3da7a414610dd0578163da5cef8314610d9c578163db006a7514610a01578163dc220b5e14610987578163e2bbb158146106db578163f289bb1e14610628578163f2fde38b1461059c578163f51ebfe214610558578163f63f67b114610367575063fd44002303610011573461036357816003193601126103635760209060ff601a541690519015158152f35b5080fd5b9050602036600319011261049e5780359161038061472d565b610388614c6b565b341515808061054f575b61039b906138fb565b6103a58434614ed6565b5061053b575b826104a2575b836103bc8434615058565b926103c561483d565b6103cd6148b2565b7f00000000000000000000000000000000000000000000000000000000000000006001600160a01b0316803b1561049e5783516340c10f1960e01b81523392810192835260208301869052918391839182908490829060400103925af180156104945761047c575b5050513481526020810192909252604082015233907f91ede45f04a37a7c170f5c1207df3b6bc748dc1e04ad5e917a241d0f52feada39080606081015b0390a26001815580f35b610485906133e8565b610490578338610435565b8380fd5b83513d84823e3d90fd5b8280fd5b815481516323b872dd60e01b81523381850190815230602080830191909152604082018790529192839182900360600190829089906001600160a01b03165af1801561053157610502575b506104fa83600f546132e2565b600f556103b1565b6105239060203d60201161052a575b61051b8183613466565b8101906138e3565b50386104ed565b503d610511565b82513d87823e3d90fd5b61054734600e546132e2565b600e556103ab565b50831515610392565b505034610363578160031936011261036357517f00000000000000000000000000000000000000000000000000000000000000006001600160a01b03168152602090f35b90503461049e57602036600319011261049e576105b76131c2565b906105c0614619565b6001600160a01b03918216928315610612575050600154826001600160601b0360a01b821617600155167f8be0079c531659141344cd1fd0a4f28419497f9722a3daafe3b4186f6b6457e0600080a380f35b51631e4fbdf760e01b8152908101849052602490fd5b90503461049e57602036600319011261049e5780359167ffffffffffffffff918284116106d757366023850112156106d757830135918211610490573660248385010111610490577f883eb0025fefb926f272994500e18b929e77f4b0b485820f44d91d485fe431dd9260249261069d614619565b600160ff19601a541617601a558083519485936020855282602086015201848401378181018301869052601f01601f19168101030190a180f35b8480fd5b9190503461049e578060031936011261049e578135916024356106fc61472d565b610704614c6b565b831515808061097e575b610717906138fb565b6107218286614ed6565b5061089a575b80610811575b846107388286615058565b9261074161483d565b6107496148b2565b7f00000000000000000000000000000000000000000000000000000000000000006001600160a01b0316803b1561049e5785516340c10f1960e01b81523392810192835260208301869052918391839182908490829060400103925af18015610807576107f3575b505091519283526020830191909152604082015233907f91ede45f04a37a7c170f5c1207df3b6bc748dc1e04ad5e917a241d0f52feada3908060608101610472565b6107fc906133e8565b6106d75784386107b1565b85513d84823e3d90fd5b815483516323b872dd60e01b8152338185019081523060208083019190915260408201859052919283918290036060019082908a906001600160a01b03165af1801561089057610871575b5061086981600f546132e2565b600f5561072d565b6108899060203d60201161052a5761051b8183613466565b503861085c565b84513d88823e3d90fd5b6003546001600160a01b031680156109205783516323b872dd60e01b81523384820190815230602082810191909152604082018890529192839182908a90829060600103925af1801561089057610901575b506108f984600e546132e2565b600e55610727565b6109199060203d60201161052a5761051b8183613466565b50386108ec565b835162461bcd60e51b8152602081850152603260248201527f4475616c5374616b696e673a20757365206465706f7369744e6174697665434f604482015271524520666f72206e617469766520434f524560701b6064820152608490fd5b5081151561070e565b9190503461049e57602036600319011261049e5781359182101561049e5760207f89dcb4af398e88cab6867b7f8a4a5fd09d1afa98e736ca3061309ca696e165a0916109d1614619565b6005805460ff60a01b191660a086901b60ff60a01b161790556109f384613190565b54908160065551908152a280f35b90503461049e576020908160031936011261049057803591610a2161472d565b610a29614c6b565b8215610d505783516370a0823160e01b815233838201526001600160a01b037f00000000000000000000000000000000000000000000000000000000000000008116939092918281602481885afa8015610cd55786918991610d1f575b5010610cdf5785516318160ddd60e01b81529282848381885afa938415610cd5578894610ca2575b50610ad4610ac785610ac289600e54613312565b613325565b94610ac288600f54613312565b94610adf8686614c8c565b803b15610c9e578751632770a7eb60e21b8152338482019081526020810189905290918a9183919082908490829060400103925af18015610c8157610c8b575b5083610c11575b84610b6c575b50509351928352602083015260408201523391507f484c40561359f3e3b8be9101897f8680aa82fbe1df9fd9038e0dbc6284032646908060608101610472565b8154875163a9059cbb60e01b815233938101938452602084018790529284928492169082908b90829060400103925af18015610c0757917f484c40561359f3e3b8be9101897f8680aa82fbe1df9fd9038e0dbc628403264695969161047293610be9575b5050610bde84600f54613305565b600f55949338610b2c565b81610bff92903d1061052a5761051b8183613466565b503880610bd0565b86513d89823e3d90fd5b600354875163a9059cbb60e01b8152338482019081526020810187905290918591839185169082908d90829060400103925af18015610c8157610c64575b50610c5c84600e54613305565b600e55610b26565b610c7a90843d861161052a5761051b8183613466565b5038610c4f565b88513d8b823e3d90fd5b610c97909891986133e8565b9638610b1f565b8880fd5b9093508281813d8311610cce575b610cba8183613466565b81010312610cca57519238610aae565b8780fd5b503d610cb0565b87513d8a823e3d90fd5b8160649287519262461bcd60e51b845283015260248201527f4475616c5374616b696e673a20696e73756666696369656e74207368617265736044820152fd5b809250848092503d8311610d49575b610d388183613466565b81010312610cca5785905138610a86565b503d610d2e565b835162461bcd60e51b815291820152602160248201527f4475616c5374616b696e673a20696e76616c696420736861726520616d6f756e6044820152601d60fa1b606482015260849150fd5b828434610dcd576020366003190112610dcd57823592831015610dcd5750610dc56020926131a9565b549051908152f35b80fd5b90503461049e57602036600319011261049e57610deb6131c2565b610df3614619565b6001600160a01b0316918215610e1b5750506001600160601b0360a01b600554161760055580f35b906020606492519162461bcd60e51b8352820152601d60248201527f4475616c5374616b696e673a20696e76616c696420636f6e74726163740000006044820152fd5b5050346103635781600319360112610363576020906016549051908152f35b83833461036357610e8d366132c3565b610e95614619565b80610e9f83613190565b5560ff60055460a01c1685811015610f025785831015610f02577f5590d4258489474a4dc26e320befe1b6918f2616a271965c3b29e3c1d24090229495508214610ef9575b610ef083518093613225565b6020820152a180f35b80600655610ee4565b634e487b7160e01b855260218652602485fd5b8334610dcd5780600319360112610dcd57610f2e614619565b60ff19601a5416601a5580601c557f9c748b2aae78ba506bf5b771078ce3d48988ff1522dfe7e36c8e42eb1d6193dd8180a180f35b9190503461049e578060031936011261049e57610f7e6131c2565b90602435918215158093036106d757610f95614619565b6001600160a01b0316928315610fea57507f92e1ad3ab46806527f335d72830537beddd1dbccf783b93e1787f6389b62342e916020918486526019835280862060ff1981541660ff841617905551908152a280f35b6020606492519162461bcd60e51b8352820152601b60248201527f4475616c5374616b696e673a20696e76616c696420726f7574657200000000006044820152fd5b90503461049e57606036600319011261049e5780356024359160443593611051614619565b82156110f75783156110b4578415611071575050600b55600c55600d5580f35b906020606492519162461bcd60e51b8352820152602060248201527f4475616c5374616b696e673a20696e76616c696420555344206d696e696d756d6044820152fd5b906020606492519162461bcd60e51b8352820152602060248201527f4475616c5374616b696e673a20696e76616c696420425443206d696e696d756d6044820152fd5b906020608492519162461bcd60e51b8352820152602160248201527f4475616c5374616b696e673a20696e76616c696420434f5245206d696e696d756044820152606d60f81b6064820152fd5b50503461036357816003193601126103635760145490516001600160a01b039091168152602090f35b90503461049e578260031936011261049e5761118761472d565b60ff60015460a01c1661150057805482516370a0823160e01b808252308285015247946001600160a01b03939092602092909183908390602490829089165afa9182156113d55788926114d1575b5087838087600554168988518095819363372500ab60e01b83525af191826114a8575b505061142d575050859386955b87838087600554168588518095819363a372630d60e01b83525af19182611404575b50506113df575b50869385611353575b866112ab575b5050508161124e575b846001815580f35b7f99493ed95c6178f21c5314b725b6169fb3786483fada073063ac1c5c121c401a9361129f9161127c61483d565b6112846148b2565b51938493846040919493926060820195825260208201520152565b0390a138808080611246565b91809394926112bc88600f546132e2565b600f5560025416855192838092639e25545160e01b82525afa92831561134957879361130b575b5050670de0b6b3a76400006112fb6113029387613312565b04906132e2565b9038808061123d565b90809350813d8311611342575b6113228183613466565b8101031261133e57905190670de0b6b3a76400006112fb6112e3565b8580fd5b503d611318565b84513d89823e3d90fd5b935061136185600e546132e2565b600e558082856002541685519283809263471d715560e11b82525afa9081156113d55788916113a6575b5061139f670de0b6b3a76400009187613312565b0493611237565b90508281813d83116113ce575b6113bd8183613466565b81010312610cca575161139f61138b565b503d6113b3565b84513d8a823e3d90fd5b946113f7816113f26113fd949847613305565b613305565b906132e2565b933861122e565b813d8311611426575b6114178183613466565b81010312610c9e578338611227565b503d61140d565b61143a8796929647613305565b958386845416926024875180958193825230888301525afa801561149e57899061146f575b6114699250613305565b95611205565b508382813d8311611497575b6114858183613466565b81010312610c9e57611469915161145f565b503d61147b565b85513d8b823e3d90fd5b813d83116114ca575b6114bb8183613466565b81010312610c9e5783386111f8565b503d6114b1565b9091508281813d83116114f9575b6114e98183613466565b81010312610cca575190386111d5565b503d6114df565b6020606492519162461bcd60e51b8352820152601c60248201527f4475616c5374616b696e673a20636f6e747261637420706175736564000000006044820152fd5b505034610363578160031936011261036357602090600b549051908152f35b828434610dcd5780600319360112610dcd5761157b613522565b91611584613522565b90805161159081613412565b6002815260208236828401378251936115a885613412565b6002855283368387013783516115bd8161344a565b600a81526921b7b932902a37b5b2b760b11b838201526115dc88613557565b526115e687613557565b5083516115f28161344a565b6011815270426974636f696e2028436f726544414f2960781b838201526116188861357a565b526116228761357a565b50835161162e8161344a565b88815263434f524560e01b8382015261164682613557565b5261165081613557565b50835161165c8161344a565b600381526242544360e81b838201526116748261357a565b5261167e8161357a565b50611687614645565b95866116e6575b6116b488886116dc896116ce8a8a6116c18b8b84519a8b9a60a08c5260a08c0190613232565b918a8303908b0152613232565b918783039088015261328f565b90848203606086015261328f565b9060808301520390f35b600e54600254865163471d715560e11b81526001600160a01b03909116929185828d81875afa918215611873578392611844575b5061172f670de0b6b3a7640000928392613312565b04928b86600f54928a5192838092639e25545160e01b82525afa90811561183a57849161180b575b5061176191613312565b048261176c89613557565b52806117778961357a565b5261271092838102908082048514901517156117f8578961179791613325565b6117a087613557565b528281029281840414901517156117e557506116b498506116dc9594926116ce94926117cf896116c194613325565b6117d88561357a565b529294509294955061168e565b634e487b7160e01b815260118a52602490fd5b634e487b7160e01b835260118c52602483fd5b90508681813d8311611833575b6118228183613466565b810103126104905751611761611757565b503d611818565b89513d86823e3d90fd5b9091508581813d831161186c575b61185c8183613466565b8101031261049e5751908c61171a565b503d611852565b88513d85823e3d90fd5b5050346103635781600319360112610363576020906010549051908152f35b5050346103635781600319360112610363576020906018549051908152f35b505034610363578160031936011261036357602090601e549051908152f35b505034610363578160031936011261036357906080916118f8613962565b9060065490611905613345565b92611915600e54600f5490614750565b94600381526020956008875283822054811015806119e0575b156119545750506003945b61194583518097613225565b85015283015215156060820152f35b600282526008875283822054811015806119cc575b15611978575050600294611939565b600182526008875283822054811015806119b8575b1561199c575050600194611939565b8180526008875283822054116119b25794611939565b94611939565b50600787528382205460011c83101561198d565b50600787528382205460011c831015611969565b50600787528382205460011c83101561192e565b90503461049e57602036600319011261049e57803591611a12614619565b60648311611a2257505060185580f35b906020606492519162461bcd60e51b8352820152601c60248201527f4475616c5374616b696e673a2072657761726420746f6f2068696768000000006044820152fd5b5050346103635781600319360112610363576020906015549051908152f35b828434610dcd5780600319360112610dcd57815191611aa28361344a565b601c83527f434f52452b425443204475616c205374616b696e67204261736b6574000000006020840152805190611ad88261342e565b606a82527f4175746f6d61746564206475616c207374616b696e672073747261746567792060208301527f74686174206d61696e7461696e73206f7074696d616c20434f52453a42544320818301527f726174696f7320666f72206d6178696d756d20436f726544414f207374616b696060830152696e67207265776172647360b01b60808301528051611b6b8161344a565b60068152654d656469756d60d01b602082015260ff60055460a01c169386851015611c3857611bc986611bf78787611be4888860038503611bfb57611bd7611bb56107d096614531565b948351998a9960a08b5260a08b0190613200565b9089820360208b0152613200565b9187830390880152613200565b9160608501528382036080850152613200565b0390f35b60028503611c1257611bd7611bb561064096614531565b60018503611c2957611bd7611bb56104b096614531565b611bd7611bb561032096614531565b634e487b7160e01b815260218752602490fd5b83915034610363578260031936011261036357611c666131c2565b611c6e614619565b6001549160ff8360a01c1615611cf357845163a9059cbb60e01b81526001600160a01b039384169181019182526024356020808401919091529093869391928592908390036040019183918891165af1908115611cea5750611cce575080f35b611ce69060203d60201161052a5761051b8183613466565b5080f35b513d84823e3d90fd5b608490602086519162461bcd60e51b83528201526024808201527f4475616c5374616b696e673a20636f6e7472616374206d7573742062652070616044820152631d5cd95960e21b6064820152fd5b839150346103635760603660031901126103635780358181101561049e5760243560443592611d6f614619565b8382108015611dda575b15611d97575090611d9391611d8d82613177565b55613148565b5580f35b606490602087519162461bcd60e51b8352820152601a60248201527f4475616c5374616b696e673a20696e76616c69642072616e67650000000000006044820152fd5b506000198414611d79565b90503461049e57602036600319011261049e57803591611e03614619565b6107d08311611e1457505060125580f35b906020606492519162461bcd60e51b8352820152601f60248201527f4475616c5374616b696e673a207468726573686f6c6420746f6f2068696768006044820152fd5b9190503461049e57611e68366132c3565b929091611e73614619565b6127108411611e87575050611d93906131a9565b906020606492519162461bcd60e51b8352820152601b60248201527f4475616c5374616b696e673a20626f6e757320746f6f206869676800000000006044820152fd5b50503461036357816003193601126103635760015490516001600160a01b039091168152602090f35b5050346103635781600319360112610363576020906013549051908152f35b505034610363578160031936011261036357602090601f549051908152f35b50503461036357816003193601126103635760207f62e78cea01bee320cd4e420270b5ea74000d11b0c9f74754ebdbfc544b05a25891611f6f614619565b611f77614c6b565b6001805460ff60a01b1916600160a01b17905551338152a180f35b8334610dcd5780600319360112610dcd57611fab61472d565b611fb36135b9565b6001815580f35b50503461036357816003193601126103635760025490516001600160a01b039091168152602090f35b90503461049e57602036600319011261049e57611ffe6131c2565b612006614619565b6001600160a01b031691821561202e5750506001600160601b0360a01b600254161760025580f35b906020606492519162461bcd60e51b8352820152601f60248201527f4475616c5374616b696e673a20696e76616c69642070726963652066656564006044820152fd5b50503461036357816003193601126103635760209061209b60ff60055460a01c1691518092613225565bf35b8334610dcd5780600319360112610dcd576120b6614619565b600180546001600160a01b0319811690915581906001600160a01b03167f8be0079c531659141344cd1fd0a4f28419497f9722a3daafe3b4186f6b6457e08280a380f35b5050346103635781600319360112610363576020906011549051908152f35b505034610363578160031936011261036357602090600e549051908152f35b5050346103635781600319360112610363576020906017549051908152f35b505034610363578160031936011261036357602090601b549051908152f35b828434610dcd5780600319360112610dcd57600e5491600f54906010546011549161219f614645565b81516318160ddd60e01b808252602097929692917f00000000000000000000000000000000000000000000000000000000000000006001600160a01b0316919089818d81865afa9081156122ee5784916122c1575b50156122ab57670de0b6b3a76400009a8b89029b898d0414891517156122985790899186518094819382525afa91821561228d57809261225b575b505061223d9060c099613325565b955b82519788528701528501526060840152608083015260a0820152f35b9091508782813d8311612286575b6122738183613466565b81010312610dcd5750518861223d61222f565b503d612269565b8451903d90823e3d90fd5b634e487b7160e01b845260119052602483fd5b50505060c09750670de0b6b3a76400009561223f565b90508981813d83116122e7575b6122d88183613466565b8101031261049057518c6121f4565b503d6122ce565b86513d86823e3d90fd5b50503461036357816003193601126103635760209060ff60015460a01c1690519015158152f35b90503461049e576020806003193601126104905761233b6131c2565b83516370a0823160e01b81526001600160a01b03918216818501527f0000000000000000000000000000000000000000000000000000000000000000909116949093909283928392918391908282896024818d5afa98891561261f5781996125f0575b508815998a158061258f575b6123cd575b50505060a09750825196875286015284015260608301526080820152f35b93509450945094506123e66123e0614645565b87613312565b82516318160ddd60e01b80825294919087818881875afa908115612585578391612556575b5061241591613325565b91612422600e5489613312565b845186815288818981865afa9081156122ee578491612527575b5061244691613325565b94612453600f548a613312565b855182815289818a81875afa90811561251d5785916124ee575b5061247791613325565b966127109a8b8b029b8b8d041417156122985790889186518094819382525afa91821561228d5780926124bc575b50506124b39060a098613325565b943880806123af565b9091508682813d83116124e7575b6124d48183613466565b81010312610dcd575051876124b36124a5565b503d6124ca565b90508981813d8311612516575b6125058183613466565b810103126106d7575161247761246d565b503d6124fb565b87513d87823e3d90fd5b90508881813d831161254f575b61253e8183613466565b81010312610490575161244661243c565b503d612534565b90508781813d831161257e575b61256d8183613466565b8101031261049e575161241561240b565b503d612563565b85513d85823e3d90fd5b5085516318160ddd60e01b815284818581855afa9081156125e65783916125b9575b5015156123aa565b90508481813d83116125df575b6125d08183613466565b8101031261049e5751386125b1565b503d6125c6565b87513d85823e3d90fd5b9098508281813d8311612618575b6126088183613466565b81010312610c9e5751973861239e565b503d6125fe565b508451903d90823e3d90fd5b5050346103635781600319360112610363576020906006549051908152f35b828434610dcd5780600319360112610dcd5750611bf76129689261298261266f6134f0565b9380519261267c8461342e565b8084526129756020608036828801378351926126978461342e565b8352608036828501376126a86134f0565b9584516126b48161344a565b600b81526a109c9bdb9e9948141bdbdb60aa1b838201526126d48a613557565b526126de89613557565b5084516126ea8161344a565b600b81526a14da5b1d995c88141bdbdb60aa1b8382015261270a8a61357a565b526127148961357a565b5084516127208161344a565b600981526811dbdb1908141bdbdb60ba1b8382015261273e8a61358a565b526127488961358a565b5084516127548161344a565b600c81526b14d85d1bdcda1a48141bdbdb60a21b838201526127758a61359a565b5261277f8961359a565b5061138861278c82613557565b526127106127998261357a565b52614e206127a68261358a565b526161a86127b38261359a565b5260fa6127bf85613557565b526101a46127cc8561357a565b526103206127d98561358a565b526104b06127e68561359a565b5284516127f281613412565b602a81527f24316b2d2431306b205553442076616c7565202b20352c3030303a31206f70748382015269696d616c20726174696f60b01b8682015261283688613557565b5261284087613557565b50845161284c81613412565b602d81527f2431306b2d243130306b205553442076616c7565202b2031302c3030303a3120838201526c6f7074696d616c20726174696f60981b868201526128938861357a565b5261289d8761357a565b5084516128a981613412565b602e81527f243130306b2d243530306b205553442076616c7565202b2032302c3030303a31838201526d206f7074696d616c20726174696f60901b868201526128f18861358a565b526128fb8761358a565b50845161290781613412565b602981527f243530306b2b205553442076616c7565202b2032352c3030303a31206f70746983820152686d616c20726174696f60b81b8682015261294a8861359a565b526129548761359a565b508451998a9960808b5260808b0190613232565b91898303908a015261328f565b918683039087015261328f565b908382036060850152613232565b828434610dcd576020366003190112610dcd57823592831015610dcd5750610dc5602092613190565b90503461049e57602036600319011261049e578035916129d7614619565b61070883106129e857505060175580f35b906020606492519162461bcd60e51b8352820152601f60248201527f4475616c5374616b696e673a20696e74657276616c20746f6f2073686f7274006044820152fd5b5050346103635760203660031901126103635760209160ff9082906001600160a01b03612a566131c2565b1681526019855220541690519015158152f35b5050346103635781600319360112610363576020805491516001600160a01b03909216825290f35b8390346103635760203660031901126103635735612aad614619565b612abb6103e88211156134a4565b60135580f35b8334610dcd576020366003190112610dcd57612adb6131c2565b612ae3614619565b60018060a01b03166001600160601b0360a01b601454161760145580f35b90503461049e578260031936011261049e57612b1b614619565b6001549060ff8260a01c1615612b63575060ff60a01b1916600155513381527f5db9ee0a495bf2e6ff9c91a7834c1ba4fdd244a5e8aa4e537bd38aeae4b073aa90602090a180f35b8251638dfc202b60e01b8152fd5b505034610363578160031936011261036357602090601d549051908152f35b5050346103635781600319360112610363576020906012549051908152f35b828434610dcd576020928360031936011261036357600254835163471d715560e11b81528235916001600160a01b031686828581845afa918215612e0d5784929188918793612e17575b508751639e25545160e01b815293849182905afa918215612e0d578592612dde575b50600654948515612d5257670de0b6b3a76400009485850294808604871490151715612d3f575050612c6b612d3493612c658694611bf797612c5f8a608097613312565b046132e2565b90613325565b91612c768684613312565b0495612cf2612d1b604a60ff60055460a01c1698612c9c612c968b614531565b916145f7565b8c86519586936d027b83a34b6b4bd32b2103337b9160951b83860152612ccb8151809285602e890191016131dd565b8401916a0103a34b2b9103bb4ba34160ad1b602e84015283519384916039850191016131dd565b01703a3120434f52453a42544320726174696f60781b603982015203602a810184520182613466565b925b815198899889528801528601526080850190613200565b916060840190613225565b634e487b7160e01b825260119052602490fd5b93959450909160011c94670de0b6b3a7640000958681029681880414901517156122985750916080612d94612d3493612d8e611bf79689613325565b97613325565b91948051612da181613412565b602681527f457175616c20616c6c6f636174696f6e20666f72206261736520746965722073898201526574616b696e6760d01b8282015292612d1d565b9091508681813d8311612e06575b612df68183613466565b810103126106d757519087612c1b565b503d612dec565b86513d87823e3d90fd5b9250925081813d8311612e42575b612e2f8183613466565b810103126106d757518391879089612bf9565b503d612e25565b505034610363578160031936011261036357602090601c549051908152f35b505034610363578160031936011261036357602090600d549051908152f35b50503461036357816003193601126103635760055490516001600160a01b039091168152602090f35b90503461049e578260031936011261049e57303303612f97575060807f47045cf8e072c0909f9cafb893395a0cd194264bdbc4f1f4ab99166996807ef091612ef6613962565b600654859182919081811015612f5c5750509091612f12613db2565b80612f45575b5090612f3b915b60ff60055460a01c169181519485526020850152830190613225565b326060820152a180f35b9250612f3b9150612f5583613f47565b9291612f18565b11612f6c575b612f3b9192612f1f565b612f74613995565b80612f80575b50612f62565b9050612f3b9150612f9081613a68565b9091612f7a565b6020606492519162461bcd60e51b8352820152601e60248201527f4475616c5374616b696e673a20696e7465726e616c2066756e6374696f6e00006044820152fd5b505034610363578160031936011261036357602090600c549051908152f35b828434610dcd576020366003190112610dcd57823592831015610dcd5750610dc5602092613177565b50503461036357816003193601126103635760a09060ff601a54169060165490601c5460155491613050613345565b93815195151586526020860152840152606083015215156080820152f35b5050346103635781600319360112610363576020906021549051908152f35b50503461036357816003193601126103635760035490516001600160a01b039091168152602090f35b505034610363578160031936011261036357602090600f549051908152f35b5050346103635781600319360112610363576020906130f2613345565b90519015158152f35b90503461049e578260031936011261049e575490516001600160a01b03909116815260209150f35b828434610dcd576020366003190112610dcd57823592831015610dcd5750610dc56020925b6004811015613161576000526009602052604060002090565b634e487b7160e01b600052602160045260246000fd5b6004811015613161576000526008602052604060002090565b6004811015613161576000526007602052604060002090565b600481101561316157600052600a602052604060002090565b600435906001600160a01b03821682036131d857565b600080fd5b60005b8381106131f05750506000910152565b81810151838201526020016131e0565b90602091613219815180928185528580860191016131dd565b601f01601f1916010190565b9060048210156131615752565b90808251908181526020809101926020808460051b8301019501936000915b8483106132615750505050505090565b909192939495848061327f600193601f198682030187528a51613200565b9801930193019194939290613251565b90815180825260208080930193019160005b8281106132af575050505090565b8351855293810193928101926001016132a1565b60409060031901126131d85760043560048110156131d8579060243590565b919082018092116132ef57565b634e487b7160e01b600052601160045260246000fd5b919082039182116132ef57565b818102929181159184041417156132ef57565b811561332f570490565b634e487b7160e01b600052601260045260246000fd5b600654801580156133dc575b6133d657613364601654601754906132e2565b42106133d657613372613962565b81808211156133a95761338491613305565b90612710918281029281840414901517156132ef576133a291613325565b6012541090565b906133b391613305565b90612710918281029281840414901517156132ef576133d191613325565b6133a2565b50600090565b5060ff601a5416613351565b67ffffffffffffffff81116133fc57604052565b634e487b7160e01b600052604160045260246000fd5b6060810190811067ffffffffffffffff8211176133fc57604052565b60a0810190811067ffffffffffffffff8211176133fc57604052565b6040810190811067ffffffffffffffff8211176133fc57604052565b90601f8019910116810190811067ffffffffffffffff8211176133fc57604052565b67ffffffffffffffff81116133fc57601f01601f191660200190565b156134ab57565b60405162461bcd60e51b815260206004820152601e60248201527f4475616c5374616b696e673a20736c69707061676520746f6f206869676800006044820152606490fd5b604051906134fd8261342e565b600482528160005b60808110613511575050565b806060602080938501015201613505565b6040906040519161353283613412565b600283528260005b82811061354657505050565b80606060208093850101520161353a565b8051156135645760200190565b634e487b7160e01b600052603260045260246000fd5b8051600110156135645760400190565b8051600210156135645760600190565b8051600310156135645760800190565b60001981146132ef5760010190565b6135c1613345565b1561389257601a5460009060ff811661384d57601c54601b54111580613821575b6137bb5750303b15610dcd5760408051632df12e5160e01b81529091808260048183305af191826137ac575b509061369b5750613620601c546135aa565b80601c5542601d55601b541115613635575b50565b60607f955ab0bdc02be6b79ebc0fd3b6cf87b6d751525a0220e904b25323ad2544645d91600160ff19601a541617601a557f526562616c616e636520657865637574696f6e206661696c656400000000000081519160208352601a6020840152820152a1565b9081601c556136ab6015546135aa565b601555426016556001546001600160a01b039290831633036136cc57505050565b6127106136e36136da614645565b60185490613312565b0492831515806137a0575b6136f9575b50505050565b61370584600e54613305565b600e55600354835163a9059cbb60e01b8152336004820152602481018690529291602091849160449183918691165af19081156137955750613776575b50519081527f0cbcc38bb40a7b0940c989eac5abd480ff9917c824c1fd6b2e38227d92c4c70060203392a2388080806136f3565b61378e9060203d60201161052a5761051b8183613466565b5038613742565b8351903d90823e3d90fd5b5083600e5410156136ee565b6137b5906133e8565b3861360e565b6001915060ff191617601a557f955ab0bdc02be6b79ebc0fd3b6cf87b6d751525a0220e904b25323ad2544645d606060405160208152601b60208201527f546f6f206d616e7920726562616c616e6365206661696c7572657300000000006040820152a1565b50601d546201518081018091116138395742106135e2565b634e487b7160e01b83526011600452602483fd5b60405162461bcd60e51b815260206004820152601f60248201527f4475616c5374616b696e673a20726562616c616e63696e6720706175736564006044820152606490fd5b60405162461bcd60e51b815260206004820152602360248201527f4475616c5374616b696e673a20726562616c616e63696e67206e6f74206e656560448201526219195960ea1b6064820152608490fd5b908160209103126131d8575180151581036131d85790565b1561390257565b60405162461bcd60e51b815260206004820152603260248201527f4475616c5374616b696e673a20626f74682061737365747320726571756972656044820152716420666f72206475616c207374616b696e6760701b6064820152608490fd5b600f5480156133d657600e5490670de0b6b3a7640000918281029281840414901517156132ef5761399291613325565b90565b600e5480156133d6576139ca906139aa613962565b50670de0b6b3a76400006139c3600f5460065490613312565b0490613305565b60011c90565b156139d757565b60405162461bcd60e51b815260206004820152601b60248201527f4475616c5374616b696e673a206e6f207377617020726f7574657200000000006044820152606490fd5b15613a2357565b60405162461bcd60e51b815260206004820152601d60248201527f4475616c5374616b696e673a20756e7472757374656420726f757465720000006044820152606490fd5b6014549091906001600160a01b0390811690613a858215156139d0565b60009180835260209260198452604091613aa460ff8484205416613a1c565b600e548711613d6e57600254835163471d715560e11b81526004929186169087818581855afa908115612e0d57849189918791613d3b575b50613ae7908c613312565b92875192838092639e25545160e01b82525afa908115612e0d578591613d0c575b50613b1291613325565b6013549061271091820390828211613cf95790613b2e91613312565b049785600354168786518092818881613b6a8863095ea7b360e01b9a8b84528c840160209093929193604081019460018060a01b031681520152565b03925af18015612e0d57613cdc575b50858354168551906370a0823160e01b80835230868401528983602481855afa928315613cd257908a918894613c9d575b5060248951809481938252308a8301525afa908115613c9357908995949392918791613c5a575b5091613bef613be6613bf79360449695613305565b9c8d10156134a4565b600e54613305565b600e55613c068a600f546132e2565b600f558487600354169760145416978751988995869485528401528160248401525af1918215613c50575050613c3a575050565b8161363292903d1061052a5761051b8183613466565b51903d90823e3d90fd5b8681939495969792503d8311613c8c575b613c758183613466565b8101031261133e5751889493929190613bef613bd1565b503d613c6b565b87513d88823e3d90fd5b8281939295503d8311613ccb575b613cb58183613466565b81010312613cc7578990519238613baa565b8680fd5b503d613cab565b88513d89823e3d90fd5b613cf290883d8a1161052a5761051b8183613466565b5038613b79565b634e487b7160e01b865260118552602486fd5b90508781813d8311613d34575b613d238183613466565b810103126106d75751613b12613b08565b503d613d19565b92505081813d8311613d67575b613d528183613466565b810103126106d75787613ae785925190613adc565b503d613d48565b825162461bcd60e51b815260048101869052601e60248201527f4475616c5374616b696e673a20696e73756666696369656e7420434f524500006044820152606490fd5b600f5480156133d657670de0b6b3a7640000613dd060065483613312565b04600e5480821115613ed057613de591613305565b60025460405163471d715560e11b8152916020916001600160a01b03168284600481845afa938415613e9557600094613ea1575b508260049160405192838092639e25545160e01b82525afa928315613e9557600093613e63575b5050613e4f92610ac291613312565b81811115613e5e575060011c90565b905090565b9080929350813d8311613e8e575b613e7b8183613466565b810103126131d857519082610ac2613e40565b503d613e71565b6040513d6000823e3d90fd5b9093508281813d8311613ec9575b613eb98183613466565b810103126131d857519282613e19565b503d613eaf565b505050600090565b600060443d1061399257604051600319913d83016004833e815167ffffffffffffffff918282113d602484011117613f3657818401948551938411613f3e573d85010160208487010111613f36575061399292910160200190613466565b949350505050565b50949350505050565b6014546001600160a01b03169190613f608315156139d0565b826000526019602052613f7a60ff60406000205416613a1c565b600f5481116144ec57600254604051639e25545160e01b8152906001600160a01b0316602082600481845afa918215613e95576000926144b7575b506020613fc460049385613312565b916040519384809263471d715560e11b82525afa908115613e9557600091614481575b613ff19250613325565b601354906127109182038281116132ef57614054926140138592602094613312565b049560018060a01b036004541690600060405180968195829463095ea7b360e01b84526004840160209093929193604081019460018060a01b031681520152565b03925af18015613e9557614462575b506003546040516370a0823160e01b80825230600483015292916001600160a01b0316602082602481845afa918215613e955760009261442e575b506014546001600160a01b03166000818152601960205260409020546140c69060ff16613a1c565b604051916140d383613412565b60028352602083019060403683376004546001600160a01b03166140f685613557565b526141008461357a565b5261012c420142116132ef576040516338ed173960e01b8152600481018690526024810189905260a06044820152925160a48401819052839160c483019160005b81811061440c575050509181600081819530606483015261012c4201608483015203925af1908161437e575b5061427e57600060033d1161426c575b6308c379a0146141de575b60405162461bcd60e51b815260206004820152602860248201527f4475616c5374616b696e673a2073776170206661696c6564202d20756e6b6e6f6044820152673bb71032b93937b960c11b6064820152608490fd5b6141e6613ed8565b806141f15750614188565b61426890614248603b60405180937f4475616c5374616b696e673a2073776170206661696c6564202d200000000000602083015261423881518092602086860191016131dd565b810103601b810184520182613466565b60405162461bcd60e51b8152602060048201529182916024830190613200565b0390fd5b5060046000803e60005160e01c61417d565b600354604051938452306004850152602090849060249082906001600160a01b03165afa928315613e9557600093614348575b506142c26142cb916142d394613305565b948510156134a4565b600f54613305565b600f556142e282600e546132e2565b600e556004805460145460405163095ea7b360e01b81526001600160a01b0391821693810193909352600060248401819052602092849260449284929091165af18015613e95576143305750565b6136329060203d60201161052a5761051b8183613466565b92506020833d602011614376575b8161436360209383613466565b810103126131d8579151916142c26142b1565b3d9150614356565b3d806000833e61438e8183613466565b8101906020818303126131d857805167ffffffffffffffff918282116131d8570182601f820112156131d85780519182116133fc576020808360051b93604051906143db83870183613466565b815201928201019283116131d857602001905b8282106143fc57505061416d565b81518152602091820191016143ee565b82516001600160a01b0316845286945060209384019390920191600101614141565b9091506020813d60201161445a575b8161444a60209383613466565b810103126131d85751903861409e565b3d915061443d565b61447a9060203d60201161052a5761051b8183613466565b5038614063565b90506020823d6020116144af575b8161449c60209383613466565b810103126131d857613ff1915190613fe7565b3d915061448f565b91506020823d6020116144e4575b816144d260209383613466565b810103126131d8579051906020613fb5565b3d91506144c5565b60405162461bcd60e51b815260206004820152601d60248201527f4475616c5374616b696e673a20696e73756666696369656e74204254430000006044820152606490fd5b600481101561316157600381146145b65760028114614595576001146145735760405161455d8161344a565b600681526542726f6e7a6560d01b602082015290565b60405161457f8161344a565b600681526529b4b63b32b960d11b602082015290565b506040516145a28161344a565b600481526311dbdb1960e21b602082015290565b506040516145c38161344a565b60078152665361746f73686960c81b602082015290565b604051906145e78261344a565b60018252600360fc1b6020830152565b801561461057670de0b6b3a76400006139929104615301565b506139926145da565b6001546001600160a01b0316330361462d57565b60405163118cdaa760e01b8152336004820152602490fd5b600e5460025460405163471d715560e11b81526001600160a01b0390911691602091908282600481875afa918215613e95576000926146fe575b50614694670de0b6b3a7640000928392613312565b0491600481600f549560405192838092639e25545160e01b82525afa918215613e95576000926146ce575b50506112fb9061399294613312565b90809250813d83116146f7575b6146e58183613466565b810103126131d85751836112fb6146bf565b503d6146db565b9091508281813d8311614726575b6147168183613466565b810103126131d85751903861467f565b503d61470c565b60026000541461473e576002600055565b604051633ee5aeb560e01b8152600490fd5b60025460405163471d715560e11b81526020936001600160a01b0390921692908481600481875afa8015613e9557859160009161480c575b5061479e670de0b6b3a764000091600494613312565b049360405192838092639e25545160e01b82525afa938415613e95576000946147d6575b50506112fb613992936305f5e10092613312565b90809450813d8311614805575b6147ed8183613466565b810103126131d8579151916112fb6305f5e1006147c2565b503d6147e3565b82819392503d8311614836575b6148238183613466565b810103126131d85751849061479e614788565b503d614819565b614845613345565b156148b057614852613962565b6006549081811015614886575050614868613db2565b80614876575b505b42601655565b61487f90613f47565b503861486e565b111561487057614894613995565b806148a0575b50614870565b6148a990613a68565b503861489a565b565b600e546148c460009160105490613305565b90600f54906148d7601192835490613305565b83159081158080614c62575b80614c57575b15614acc57508490809560065493849261490d670de0b6b3a7640000968792613312565b049482861015614a945750505050505b80151580614a8b575b6149305750505050565b6004805460055460405163095ea7b360e01b8082526001600160a01b0392831694820194909452602481018890526020979196939491928890829060449082908a908c165af18015614a8057614a63575b508560055416803b1561133e578580839260246040518095819363dfbda69b60e01b83528960048401525af19182614a4f575b5050614a2757505050839060448460045416946005541691846040519687948593845260048401528160248401525af1908115614a1b57506149fd575b50505b388080806136f3565b81614a1392903d1061052a5761051b8183613466565b5038806149f1565b604051903d90823e3d90fd5b9195509250614a489350614a3e91506010546132e2565b60105582546132e2565b90556149f4565b614a58906133e8565b61133e5785386149b4565b614a7990883d8a1161052a5761051b8183613466565b5038614981565b6040513d88823e3d90fd5b50831515614926565b93975091935080830292908304141715614ab85790614ab291613325565b9261491d565b634e487b7160e01b83526004849052602483fd5b90949150614bf1575b5082614ae057505050565b6004805460055460405163095ea7b360e01b8082526001600160a01b03928316948201949094526024810187905260209691959287908290604490829089908b165af18015614be657614bc9575b508460055416803b156106d7578480809260246040518095819363615c239160e11b83528860048401525af19182614bb5575b5050614ba0575050839060448460045416946005541691846040519687948593845260048401528160248401525af1908115614a1b5750613c3a575050565b9250935050614bb1915082546132e2565b9055565b614bbe906133e8565b6106d7578438614b61565b614bdf90873d891161052a5761051b8183613466565b5038614b2e565b6040513d87823e3d90fd5b6005546001600160a01b0316803b1561049e5782829160246040518094819363e230845960e01b83528160048401525af19081614c44575b5015614ad557614c3b906010546132e2565b60105538614ad5565b614c50909391936133e8565b9138614c29565b5060065415156148e9565b508115156148e3565b60ff60015460a01c16614c7a57565b60405163d93c066560e01b8152600490fd5b60009080158015908180614ecd575b80614ec1575b80614eb5575b614db1575b5080614da5575b614d3c575b5081151580614d30575b614cca575050565b6005546001600160a01b0316803b1561036357818091602460405180958193633312a03360e01b83528860048401525af19182614d1c575b5050614d0b5750565b614d1790601154613305565b601155565b614d2682916133e8565b610dcd5780614d02565b50816011541015614cc2565b6005546001600160a01b0316803b1561049e578280809260246040518095819363f780777d60e01b83528860048401525af19182614d91575b505015614cb857614d8890601054613305565b60105538614cb8565b614d9a906133e8565b61049e578238614d75565b50806010541015614cb3565b612710908184029084820483141715614ea157601054614dd091613325565b818602868104831487151715614e8d57601154614dec91613325565b80821015614e8657505b6005546001600160a01b0316803b1561133e57858091602460405180948193632b2d81b160e21b83528760048401525af19081614e73575b50614e395750614cac565b9250925050614d179250614e6b6010549280614e558486613312565b0490614e646011549485613312565b0493613305565b601055613305565b614e7f909691966133e8565b9438614e2e565b9050614df6565b634e487b7160e01b86526011600452602486fd5b634e487b7160e01b85526011600452602485fd5b50846011541015614ca7565b50826010541015614ca1565b50841515614c9b565b90600b54821061500557600c548110614fb457614ef291614750565b600d548110614f63576003600090815260086020527f625b35f5e76f098dd7c3a05b10e2e5e78a4a01228d60c3b143426cdf36d26455549091908110614f39575050600390565b6002825260408220548110614f4f575050600290565b600182526040822054116139925750600190565b60405162461bcd60e51b815260206004820152602360248201527f4475616c5374616b696e673a20696e73756666696369656e74205553442076616044820152626c756560e81b6064820152608490fd5b60405162461bcd60e51b8152602060048201526024808201527f4475616c5374616b696e673a20696e73756666696369656e742042544320616d6044820152631bdd5b9d60e21b6064820152608490fd5b60405162461bcd60e51b815260206004820152602560248201527f4475616c5374616b696e673a20696e73756666696369656e7420434f524520616044820152641b5bdd5b9d60da1b6064820152608490fd5b604080516318160ddd60e01b8082526004946001600160a01b03947f0000000000000000000000000000000000000000000000000000000000000000861693602093929084818a81895afa9081156151d4576000916152d4575b5015615220576150c0614645565b600254875163471d715560e11b81529198169285828b81875afa918215615215579186918b94936000926151df575b50906150fa91613312565b93885193848092639e25545160e01b82525afa9182156151d45790859493929160009261519f575b50916113f761513a92670de0b6b3a764000094613312565b049685518095819382525afa9283156151955750600092615165575b5050610ac29061399293613312565b90809250813d831161518e575b61517c8183613466565b810103126131d8575182610ac2615156565b503d615172565b513d6000823e3d90fd5b858194969293503d83116151cd575b6151b88183613466565b810103126131d85790518493916113f7615122565b503d6151ae565b87513d6000823e3d90fd5b945091905083813d831161520e575b6151f88183613466565b810103126131d8576150fa86918b9451916150ef565b503d6151ee565b88513d6000823e3d90fd5b600254865163471d715560e11b815291989716969095945092915081858481895afa9485156152c95760009561529a575b508190615268670de0b6b3a7640000968792613312565b0495845193848092639e25545160e01b82525afa92831561519557506000926146ce5750506112fb9061399294613312565b9094508181813d83116152c2575b6152b28183613466565b810103126131d857519381615251565b503d6152a8565b84513d6000823e3d90fd5b90508481813d83116152fa575b6152eb8183613466565b810103126131d85751386150b2565b503d6152e1565b801561461057600081805b615394575061531a81613488565b906153286040519283613466565b808252601f1961533782613488565b013660208401375b8092801561538d5760001982019182116132ef578193600a9260309084840682018092116132ef57855111156135645760f81b6001600160f81b03191660001a908401601f0153049161533f565b5050905090565b906153a0600a916135aa565b91048061530c56fea2646970667358221220053a48e383f5dfea369e54dcf6f140910a037a98e5c02abd0895aa53a7f7115064736f6c63430008160033",
  "linkReferences": {},
  "deployedLinkReferences": {}
}