{
  "_format": "hh-sol-artifact-1",
  "contractName": "DualStakingBasket",
  "sourceName": "contracts/DualStakingBasket.sol",
  "abi": [
    {
      "inputs": [
        {
          "internalType": "address",
          "name": "_basketToken",
          "type": "address"
        },
        {
          "internalType": "address",
          "name": "_priceFeed",
          "type": "address"
        },
        {
          "internalType": "address",
          "name": "_coreToken",
          "type": "address"
        },
        {
          "internalType": "address",
          "name": "_btcToken",
          "type": "address"
        },
        {
          "internalType": "address",
          "name": "_dualStakingContract",
          "type": "address"
        },
        {
          "internalType": "address",
          "name": "_feeRecipient",
          "type": "address"
        },
        {
          "internalType": "enum DualStakingBasket.StakingTier",
          "name": "_targetTier",
          "type": "uint8"
        },
        {
          "internalType": "address",
          "name": "initialOwner",
          "type": "address"
        }
      ],
      "stateMutability": "nonpayable",
      "type": "constructor"
    },
    {
      "inputs": [],
      "name": "EnforcedPause",
      "type": "error"
    },
    {
      "inputs": [],
      "name": "ExpectedPause",
      "type": "error"
    },
    {
      "inputs": [
        {
          "internalType": "address",
          "name": "owner",
          "type": "address"
        }
      ],
      "name": "OwnableInvalidOwner",
      "type": "error"
    },
    {
      "inputs": [
        {
          "internalType": "address",
          "name": "account",
          "type": "address"
        }
      ],
      "name": "OwnableUnauthorizedAccount",
      "type": "error"
    },
    {
      "inputs": [],
      "name": "ReentrancyGuardReentrantCall",
      "type": "error"
    },
    {
      "anonymous": false,
      "inputs": [
        {
          "indexed": false,
          "internalType": "string",
          "name": "reason",
          "type": "string"
        }
      ],
      "name": "CircuitBreakerTriggered",
      "type": "event"
    },
    {
      "anonymous": false,
      "inputs": [
        {
          "indexed": true,
          "internalType": "address",
          "name": "user",
          "type": "address"
        },
        {
          "indexed": false,
          "internalType": "uint256",
          "name": "coreAmount",
          "type": "uint256"
        },
        {
          "indexed": false,
          "internalType": "uint256",
          "name": "btcAmount",
          "type": "uint256"
        },
        {
          "indexed": false,
          "internalType": "uint256",
          "name": "shares",
          "type": "uint256"
        }
      ],
      "name": "Deposited",
      "type": "event"
    },
    {
      "anonymous": false,
      "inputs": [
        {
          "indexed": true,
          "internalType": "address",
          "name": "keeper",
          "type": "address"
        },
        {
          "indexed": false,
          "internalType": "uint256",
          "name": "reward",
          "type": "uint256"
        }
      ],
      "name": "KeeperRewardPaid",
      "type": "event"
    },
    {
      "anonymous": false,
      "inputs": [
        {
          "indexed": true,
          "internalType": "address",
          "name": "previousOwner",
          "type": "address"
        },
        {
          "indexed": true,
          "internalType": "address",
          "name": "newOwner",
          "type": "address"
        }
      ],
      "name": "OwnershipTransferred",
      "type": "event"
    },
    {
      "anonymous": false,
      "inputs": [
        {
          "indexed": false,
          "internalType": "address",
          "name": "account",
          "type": "address"
        }
      ],
      "name": "Paused",
      "type": "event"
    },
    {
      "anonymous": false,
      "inputs": [
        {
          "indexed": false,
          "internalType": "uint256",
          "name": "coreSwapped",
          "type": "uint256"
        },
        {
          "indexed": false,
          "internalType": "uint256",
          "name": "btcSwapped",
          "type": "uint256"
        },
        {
          "indexed": false,
          "internalType": "enum DualStakingBasket.StakingTier",
          "name": "currentTier",
          "type": "uint8"
        },
        {
          "indexed": false,
          "internalType": "address",
          "name": "keeper",
          "type": "address"
        }
      ],
      "name": "Rebalanced",
      "type": "event"
    },
    {
      "anonymous": false,
      "inputs": [
        {
          "indexed": false,
          "internalType": "string",
          "name": "reason",
          "type": "string"
        }
      ],
      "name": "RebalancingPaused",
      "type": "event"
    },
    {
      "anonymous": false,
      "inputs": [],
      "name": "RebalancingResumed",
      "type": "event"
    },
    {
      "anonymous": false,
      "inputs": [
        {
          "indexed": true,
          "internalType": "address",
          "name": "user",
          "type": "address"
        },
        {
          "indexed": false,
          "internalType": "uint256",
          "name": "shares",
          "type": "uint256"
        },
        {
          "indexed": false,
          "internalType": "uint256",
          "name": "coreAmount",
          "type": "uint256"
        },
        {
          "indexed": false,
          "internalType": "uint256",
          "name": "btcAmount",
          "type": "uint256"
        }
      ],
      "name": "Redeemed",
      "type": "event"
    },
    {
      "anonymous": false,
      "inputs": [
        {
          "indexed": false,
          "internalType": "uint256",
          "name": "rewards",
          "type": "uint256"
        },
        {
          "indexed": false,
          "internalType": "uint256",
          "name": "coreRewards",
          "type": "uint256"
        },
        {
          "indexed": false,
          "internalType": "uint256",
          "name": "btcRewards",
          "type": "uint256"
        }
      ],
      "name": "RewardsCompounded",
      "type": "event"
    },
    {
      "anonymous": false,
      "inputs": [
        {
          "indexed": true,
          "internalType": "address",
          "name": "router",
          "type": "address"
        },
        {
          "indexed": false,
          "internalType": "bool",
          "name": "approved",
          "type": "bool"
        }
      ],
      "name": "RouterApproved",
      "type": "event"
    },
    {
      "anonymous": false,
      "inputs": [
        {
          "indexed": false,
          "internalType": "enum DualStakingBasket.StakingTier",
          "name": "tier",
          "type": "uint8"
        },
        {
          "indexed": false,
          "internalType": "uint256",
          "name": "newRatio",
          "type": "uint256"
        }
      ],
      "name": "TierRatioUpdated",
      "type": "event"
    },
    {
      "anonymous": false,
      "inputs": [
        {
          "indexed": true,
          "internalType": "enum DualStakingBasket.StakingTier",
          "name": "tier",
          "type": "uint8"
        },
        {
          "indexed": false,
          "internalType": "uint256",
          "name": "ratio",
          "type": "uint256"
        }
      ],
      "name": "TierTargetSet",
      "type": "event"
    },
    {
      "anonymous": false,
      "inputs": [
        {
          "indexed": false,
          "internalType": "address",
          "name": "account",
          "type": "address"
        }
      ],
      "name": "Unpaused",
      "type": "event"
    },
    {
      "inputs": [],
      "name": "_executeRebalance",
      "outputs": [],
      "stateMutability": "nonpayable",
      "type": "function"
    },
    {
      "inputs": [],
      "name": "basketToken",
      "outputs": [
        {
          "internalType": "contract StakeBasketToken",
          "name": "",
          "type": "address"
        }
      ],
      "stateMutability": "view",
      "type": "function"
    },
    {
      "inputs": [],
      "name": "btcToken",
      "outputs": [
        {
          "internalType": "contract IERC20",
          "name": "",
          "type": "address"
        }
      ],
      "stateMutability": "view",
      "type": "function"
    },
    {
      "inputs": [],
      "name": "compoundRewards",
      "outputs": [],
      "stateMutability": "nonpayable",
      "type": "function"
    },
    {
      "inputs": [],
      "name": "coreToken",
      "outputs": [
        {
          "internalType": "contract IERC20",
          "name": "",
          "type": "address"
        }
      ],
      "stateMutability": "view",
      "type": "function"
    },
    {
      "inputs": [
        {
          "internalType": "uint256",
          "name": "coreAmount",
          "type": "uint256"
        },
        {
          "internalType": "uint256",
          "name": "btcAmount",
          "type": "uint256"
        }
      ],
      "name": "deposit",
      "outputs": [],
      "stateMutability": "nonpayable",
      "type": "function"
    },
    {
      "inputs": [
        {
          "internalType": "uint256",
          "name": "btcAmount",
          "type": "uint256"
        }
      ],
      "name": "depositNativeCORE",
      "outputs": [],
      "stateMutability": "payable",
      "type": "function"
    },
    {
      "inputs": [],
      "name": "dualStakingContract",
      "outputs": [
        {
          "internalType": "contract IDualStaking",
          "name": "",
          "type": "address"
        }
      ],
      "stateMutability": "view",
      "type": "function"
    },
    {
      "inputs": [
        {
          "internalType": "address",
          "name": "token",
          "type": "address"
        },
        {
          "internalType": "uint256",
          "name": "amount",
          "type": "uint256"
        }
      ],
      "name": "emergencyWithdraw",
      "outputs": [],
      "stateMutability": "nonpayable",
      "type": "function"
    },
    {
      "inputs": [],
      "name": "feeRecipient",
      "outputs": [
        {
          "internalType": "address",
          "name": "",
          "type": "address"
        }
      ],
      "stateMutability": "view",
      "type": "function"
    },
    {
      "inputs": [],
      "name": "getBasketComposition",
      "outputs": [
        {
          "internalType": "string[]",
          "name": "assetNames",
          "type": "string[]"
        },
        {
          "internalType": "string[]",
          "name": "assetSymbols",
          "type": "string[]"
        },
        {
          "internalType": "uint256[]",
          "name": "allocations",
          "type": "uint256[]"
        },
        {
          "internalType": "uint256[]",
          "name": "values",
          "type": "uint256[]"
        },
        {
          "internalType": "uint256",
          "name": "totalValue",
          "type": "uint256"
        }
      ],
      "stateMutability": "view",
      "type": "function"
    },
    {
      "inputs": [],
      "name": "getCurrentTierStatus",
      "outputs": [
        {
          "internalType": "enum DualStakingBasket.StakingTier",
          "name": "currentTier",
          "type": "uint8"
        },
        {
          "internalType": "uint256",
          "name": "currentRatio",
          "type": "uint256"
        },
        {
          "internalType": "uint256",
          "name": "targetRatio_",
          "type": "uint256"
        },
        {
          "internalType": "bool",
          "name": "needsRebalance",
          "type": "bool"
        }
      ],
      "stateMutability": "view",
      "type": "function"
    },
    {
      "inputs": [
        {
          "internalType": "uint256",
          "name": "usdAmount",
          "type": "uint256"
        }
      ],
      "name": "getOptimalDepositAmounts",
      "outputs": [
        {
          "internalType": "uint256",
          "name": "recommendedCoreAmount",
          "type": "uint256"
        },
        {
          "internalType": "uint256",
          "name": "recommendedBtcAmount",
          "type": "uint256"
        },
        {
          "internalType": "string",
          "name": "rationale",
          "type": "string"
        },
        {
          "internalType": "enum DualStakingBasket.StakingTier",
          "name": "achievableTier",
          "type": "uint8"
        }
      ],
      "stateMutability": "view",
      "type": "function"
    },
    {
      "inputs": [],
      "name": "getPoolInfo",
      "outputs": [
        {
          "internalType": "uint256",
          "name": "totalCORE",
          "type": "uint256"
        },
        {
          "internalType": "uint256",
          "name": "totalBTC",
          "type": "uint256"
        },
        {
          "internalType": "uint256",
          "name": "stakedCORE",
          "type": "uint256"
        },
        {
          "internalType": "uint256",
          "name": "stakedBTC",
          "type": "uint256"
        },
        {
          "internalType": "uint256",
          "name": "totalValueUSD",
          "type": "uint256"
        },
        {
          "internalType": "uint256",
          "name": "sharePrice",
          "type": "uint256"
        }
      ],
      "stateMutability": "view",
      "type": "function"
    },
    {
      "inputs": [],
      "name": "getRebalanceInfo",
      "outputs": [
        {
          "internalType": "bool",
          "name": "isPaused",
          "type": "bool"
        },
        {
          "internalType": "uint256",
          "name": "lastRebalance",
          "type": "uint256"
        },
        {
          "internalType": "uint256",
          "name": "failureCount",
          "type": "uint256"
        },
        {
          "internalType": "uint256",
          "name": "totalRebalances",
          "type": "uint256"
        },
        {
          "internalType": "bool",
          "name": "canRebalance",
          "type": "bool"
        }
      ],
      "stateMutability": "view",
      "type": "function"
    },
    {
      "inputs": [],
      "name": "getStrategyInfo",
      "outputs": [
        {
          "internalType": "string",
          "name": "strategyName",
          "type": "string"
        },
        {
          "internalType": "string",
          "name": "description",
          "type": "string"
        },
        {
          "internalType": "string",
          "name": "riskLevel",
          "type": "string"
        },
        {
          "internalType": "uint256",
          "name": "currentAPY",
          "type": "uint256"
        },
        {
          "internalType": "string",
          "name": "targetTierName",
          "type": "string"
        }
      ],
      "stateMutability": "view",
      "type": "function"
    },
    {
      "inputs": [],
      "name": "getTierBenefits",
      "outputs": [
        {
          "internalType": "string[]",
          "name": "tierNames",
          "type": "string[]"
        },
        {
          "internalType": "uint256[]",
          "name": "ratioRequirements",
          "type": "uint256[]"
        },
        {
          "internalType": "uint256[]",
          "name": "apyBoosts",
          "type": "uint256[]"
        },
        {
          "internalType": "string[]",
          "name": "descriptions",
          "type": "string[]"
        }
      ],
      "stateMutability": "view",
      "type": "function"
    },
    {
      "inputs": [
        {
          "internalType": "address",
          "name": "user",
          "type": "address"
        }
      ],
      "name": "getUserPosition",
      "outputs": [
        {
          "internalType": "uint256",
          "name": "basketTokenBalance",
          "type": "uint256"
        },
        {
          "internalType": "uint256",
          "name": "valueInUSD",
          "type": "uint256"
        },
        {
          "internalType": "uint256",
          "name": "coreEquivalent",
          "type": "uint256"
        },
        {
          "internalType": "uint256",
          "name": "btcEquivalent",
          "type": "uint256"
        },
        {
          "internalType": "uint256",
          "name": "shareOfPool",
          "type": "uint256"
        }
      ],
      "stateMutability": "view",
      "type": "function"
    },
    {
      "inputs": [
        {
          "internalType": "address",
          "name": "router",
          "type": "address"
        }
      ],
      "name": "isTrustedRouter",
      "outputs": [
        {
          "internalType": "bool",
          "name": "",
          "type": "bool"
        }
      ],
      "stateMutability": "view",
      "type": "function"
    },
    {
      "inputs": [],
      "name": "keeperReward",
      "outputs": [
        {
          "internalType": "uint256",
          "name": "",
          "type": "uint256"
        }
      ],
      "stateMutability": "view",
      "type": "function"
    },
    {
      "inputs": [],
      "name": "lastFeeCollection",
      "outputs": [
        {
          "internalType": "uint256",
          "name": "",
          "type": "uint256"
        }
      ],
      "stateMutability": "view",
      "type": "function"
    },
    {
      "inputs": [],
      "name": "lastRebalanceFailure",
      "outputs": [
        {
          "internalType": "uint256",
          "name": "",
          "type": "uint256"
        }
      ],
      "stateMutability": "view",
      "type": "function"
    },
    {
      "inputs": [],
      "name": "lastRebalanceTime",
      "outputs": [
        {
          "internalType": "uint256",
          "name": "",
          "type": "uint256"
        }
      ],
      "stateMutability": "view",
      "type": "function"
    },
    {
      "inputs": [],
      "name": "managementFee",
      "outputs": [
        {
          "internalType": "uint256",
          "name": "",
          "type": "uint256"
        }
      ],
      "stateMutability": "view",
      "type": "function"
    },
    {
      "inputs": [],
      "name": "maxRebalanceFailures",
      "outputs": [
        {
          "internalType": "uint256",
          "name": "",
          "type": "uint256"
        }
      ],
      "stateMutability": "view",
      "type": "function"
    },
    {
      "inputs": [],
      "name": "maxSlippage",
      "outputs": [
        {
          "internalType": "uint256",
          "name": "",
          "type": "uint256"
        }
      ],
      "stateMutability": "view",
      "type": "function"
    },
    {
      "inputs": [],
      "name": "minRebalanceInterval",
      "outputs": [
        {
          "internalType": "uint256",
          "name": "",
          "type": "uint256"
        }
      ],
      "stateMutability": "view",
      "type": "function"
    },
    {
      "inputs": [],
      "name": "needsRebalancing",
      "outputs": [
        {
          "internalType": "bool",
          "name": "",
          "type": "bool"
        }
      ],
      "stateMutability": "view",
      "type": "function"
    },
    {
      "inputs": [],
      "name": "owner",
      "outputs": [
        {
          "internalType": "address",
          "name": "",
          "type": "address"
        }
      ],
      "stateMutability": "view",
      "type": "function"
    },
    {
      "inputs": [],
      "name": "pause",
      "outputs": [],
      "stateMutability": "nonpayable",
      "type": "function"
    },
    {
      "inputs": [
        {
          "internalType": "string",
          "name": "reason",
          "type": "string"
        }
      ],
      "name": "pauseRebalancing",
      "outputs": [],
      "stateMutability": "nonpayable",
      "type": "function"
    },
    {
      "inputs": [],
      "name": "paused",
      "outputs": [
        {
          "internalType": "bool",
          "name": "",
          "type": "bool"
        }
      ],
      "stateMutability": "view",
      "type": "function"
    },
    {
      "inputs": [],
      "name": "performanceFee",
      "outputs": [
        {
          "internalType": "uint256",
          "name": "",
          "type": "uint256"
        }
      ],
      "stateMutability": "view",
      "type": "function"
    },
    {
      "inputs": [],
      "name": "priceFeed",
      "outputs": [
        {
          "internalType": "contract PriceFeed",
          "name": "",
          "type": "address"
        }
      ],
      "stateMutability": "view",
      "type": "function"
    },
    {
      "inputs": [],
      "name": "rebalance",
      "outputs": [],
      "stateMutability": "nonpayable",
      "type": "function"
    },
    {
      "inputs": [],
      "name": "rebalanceCount",
      "outputs": [
        {
          "internalType": "uint256",
          "name": "",
          "type": "uint256"
        }
      ],
      "stateMutability": "view",
      "type": "function"
    },
    {
      "inputs": [],
      "name": "rebalanceFailureCount",
      "outputs": [
        {
          "internalType": "uint256",
          "name": "",
          "type": "uint256"
        }
      ],
      "stateMutability": "view",
      "type": "function"
    },
    {
      "inputs": [],
      "name": "rebalanceThreshold",
      "outputs": [
        {
          "internalType": "uint256",
          "name": "",
          "type": "uint256"
        }
      ],
      "stateMutability": "view",
      "type": "function"
    },
    {
      "inputs": [],
      "name": "rebalancingPaused",
      "outputs": [
        {
          "internalType": "bool",
          "name": "",
          "type": "bool"
        }
      ],
      "stateMutability": "view",
      "type": "function"
    },
    {
      "inputs": [
        {
          "internalType": "uint256",
          "name": "shares",
          "type": "uint256"
        }
      ],
      "name": "redeem",
      "outputs": [],
      "stateMutability": "nonpayable",
      "type": "function"
    },
    {
      "inputs": [],
      "name": "renounceOwnership",
      "outputs": [],
      "stateMutability": "nonpayable",
      "type": "function"
    },
    {
      "inputs": [],
      "name": "resumeRebalancing",
      "outputs": [],
      "stateMutability": "nonpayable",
      "type": "function"
    },
    {
      "inputs": [
        {
          "internalType": "address",
          "name": "_dualStakingContract",
          "type": "address"
        }
      ],
      "name": "setDualStakingContract",
      "outputs": [],
      "stateMutability": "nonpayable",
      "type": "function"
    },
    {
      "inputs": [
        {
          "internalType": "uint256",
          "name": "_reward",
          "type": "uint256"
        }
      ],
      "name": "setKeeperReward",
      "outputs": [],
      "stateMutability": "nonpayable",
      "type": "function"
    },
    {
      "inputs": [
        {
          "internalType": "uint256",
          "name": "_slippage",
          "type": "uint256"
        }
      ],
      "name": "setMaxSlippage",
      "outputs": [],
      "stateMutability": "nonpayable",
      "type": "function"
    },
    {
      "inputs": [
        {
          "internalType": "uint256",
          "name": "_interval",
          "type": "uint256"
        }
      ],
      "name": "setMinRebalanceInterval",
      "outputs": [],
      "stateMutability": "nonpayable",
      "type": "function"
    },
    {
      "inputs": [
        {
          "internalType": "address",
          "name": "_priceFeed",
          "type": "address"
        }
      ],
      "name": "setPriceFeed",
      "outputs": [],
      "stateMutability": "nonpayable",
      "type": "function"
    },
    {
      "inputs": [
        {
          "internalType": "uint256",
          "name": "_threshold",
          "type": "uint256"
        }
      ],
      "name": "setRebalanceThreshold",
      "outputs": [],
      "stateMutability": "nonpayable",
      "type": "function"
    },
    {
      "inputs": [
        {
          "internalType": "address",
          "name": "_router",
          "type": "address"
        }
      ],
      "name": "setSwapRouter",
      "outputs": [],
      "stateMutability": "nonpayable",
      "type": "function"
    },
    {
      "inputs": [
        {
          "internalType": "enum DualStakingBasket.StakingTier",
          "name": "_tier",
          "type": "uint8"
        }
      ],
      "name": "setTargetTier",
      "outputs": [],
      "stateMutability": "nonpayable",
      "type": "function"
    },
    {
      "inputs": [
        {
          "internalType": "address",
          "name": "_router",
          "type": "address"
        },
        {
          "internalType": "bool",
          "name": "_trusted",
          "type": "bool"
        }
      ],
      "name": "setTrustedRouter",
      "outputs": [],
      "stateMutability": "nonpayable",
      "type": "function"
    },
    {
      "inputs": [],
      "name": "swapRouter",
      "outputs": [
        {
          "internalType": "address",
          "name": "",
          "type": "address"
        }
      ],
      "stateMutability": "view",
      "type": "function"
    },
    {
      "inputs": [],
      "name": "targetRatio",
      "outputs": [
        {
          "internalType": "uint256",
          "name": "",
          "type": "uint256"
        }
      ],
      "stateMutability": "view",
      "type": "function"
    },
    {
      "inputs": [],
      "name": "targetTier",
      "outputs": [
        {
          "internalType": "enum DualStakingBasket.StakingTier",
          "name": "",
          "type": "uint8"
        }
      ],
      "stateMutability": "view",
      "type": "function"
    },
    {
      "inputs": [
        {
          "internalType": "enum DualStakingBasket.StakingTier",
          "name": "",
          "type": "uint8"
        }
      ],
      "name": "tierRatios",
      "outputs": [
        {
          "internalType": "uint256",
          "name": "",
          "type": "uint256"
        }
      ],
      "stateMutability": "view",
      "type": "function"
    },
    {
      "inputs": [],
      "name": "totalPooledBTC",
      "outputs": [
        {
          "internalType": "uint256",
          "name": "",
          "type": "uint256"
        }
      ],
      "stateMutability": "view",
      "type": "function"
    },
    {
      "inputs": [],
      "name": "totalPooledCORE",
      "outputs": [
        {
          "internalType": "uint256",
          "name": "",
          "type": "uint256"
        }
      ],
      "stateMutability": "view",
      "type": "function"
    },
    {
      "inputs": [],
      "name": "totalStakedBTC",
      "outputs": [
        {
          "internalType": "uint256",
          "name": "",
          "type": "uint256"
        }
      ],
      "stateMutability": "view",
      "type": "function"
    },
    {
      "inputs": [],
      "name": "totalStakedCORE",
      "outputs": [
        {
          "internalType": "uint256",
          "name": "",
          "type": "uint256"
        }
      ],
      "stateMutability": "view",
      "type": "function"
    },
    {
      "inputs": [
        {
          "internalType": "address",
          "name": "newOwner",
          "type": "address"
        }
      ],
      "name": "transferOwnership",
      "outputs": [],
      "stateMutability": "nonpayable",
      "type": "function"
    },
    {
      "inputs": [
        {
          "internalType": "address",
          "name": "",
          "type": "address"
        }
      ],
      "name": "trustedRouters",
      "outputs": [
        {
          "internalType": "bool",
          "name": "",
          "type": "bool"
        }
      ],
      "stateMutability": "view",
      "type": "function"
    },
    {
      "inputs": [],
      "name": "unpause",
      "outputs": [],
      "stateMutability": "nonpayable",
      "type": "function"
    },
    {
      "inputs": [
        {
          "internalType": "enum DualStakingBasket.StakingTier",
          "name": "_tier",
          "type": "uint8"
        },
        {
          "internalType": "uint256",
          "name": "_ratio",
          "type": "uint256"
        }
      ],
      "name": "updateTierRatio",
      "outputs": [],
      "stateMutability": "nonpayable",
      "type": "function"
    },
    {
      "stateMutability": "payable",
      "type": "receive"
    }
  ],
  "bytecode": "0x60a034620003ef57601f6200505738819003918201601f1916830191906001600160401b03831184841017620003f457816101009285926040958652833981010312620003ef5762000051826200040a565b6020620000608185016200040a565b906200006e8486016200040a565b916200007d606087016200040a565b936200008c608088016200040a565b906200009b60a089016200040a565b9160c0890151956004998a881015620003ef5760e0620000bc91016200040a565b60016000908155986001600160a01b03918216969192918715620003d857600180546001600160a01b03198082168b179092558d5191999192919086167f8be0079c531659141344cd1fd0a4f28419497f9722a3daafe3b4186f6b6457e08e80a36101f4600c5560c8600d55610e10601155600a601255600360155584606497886018556103e8601955169182156200038e575084169182156200034c5784169485156200030a578416968715620002b5578416958615620002685750918b9c93916007999897969593608052876002541617600255168062000258575b508482541617905560055492601a541617601a5560ff60a01b8560a01b169160018060a81b031916171760055583805252818381205560018252686c6b935b8bbd400000838320556002825269014542ba12a337c0000083832055600382526903635c9adc5dea000000838320558152205460065542601b554260105551614c37908162000420823960805181818161036b01528181610509015281816106dd0152818161097801528181611de801528181611f8b01526148ce0152f35b856003541617600355386200019a565b8d611b9d60f21b6084928f8d90519362461bcd60e51b8552840152602260248401527f4475616c5374616b696e673a20696e76616c69642066656520726563697069656044840152820152fd5b8c5162461bcd60e51b8152808f018b9052602a60248201527f4475616c5374616b696e673a20696e76616c6964206475616c207374616b696e60448201526919c818dbdb9d1c9858dd60b21b81890152608490fd5b8c5162461bcd60e51b8152808f018b9052601e60248201527f4475616c5374616b696e673a20696e76616c69642062746320746f6b656e000060448201528790fd5b8c5162461bcd60e51b8152808f018b9052601f60248201527f4475616c5374616b696e673a20696e76616c696420707269636520666565640060448201528790fd5b62461bcd60e51b81528e81018b9052602160248201527f4475616c5374616b696e673a20696e76616c6964206261736b657420746f6b656044820152603760f91b88820152608490fd5b8b51631e4fbdf760e01b8152808e018c9052602490fd5b600080fd5b634e487b7160e01b600052604160045260246000fd5b51906001600160a01b0382168203620003ef5756fe6080604081815260049182361015610022575b505050361561002057600080fd5b005b600092833560e01c918263074bc10114612caa57508163095692db14612c84578163096a3a7414612c655781630c2b72e914612c3c57816317a9e19814612c1d5781631b468dc914612bd0578163264e97e0146126405781632df12e5114612aa75781632efebd9d14612a7e5781633457c93614612a5f57816336cb9124146127c55781633dfe9f6a146127a65781633e3eb331146127875781633f4ba83a1461271757816341273657146126d757816343f68a49146126a7578163469048401461267e57816347a56e38146126405781634e18f760146125ce5781634f5d0d5a1461259d57816357bf53cc1461227d5781635a08bd171461225e5781635b7c2dad14611f525781635c975abb14611f2b57816360246c8814611da957816363a0b38c14611d8a5781636c252eb214611d6b5781636d20d2a414611d4c5781637053113e14611d2d578163715018a614611cd057816371aa78a214611ca4578163724e78da14611c16578163741bef1a14611bed5781637d7c2a1c14611bc55781638456cb5914611b645781638778878214611b455781638c04166f14611b265781638da5cb5b14611afd5781638f8b651514611a8b57816395ccea67146119945781639613092d146117cd57816396bad844146117ae5781639797fab81461173d57816397e39739146116a7578163a6f7f5d614611688578163a9ec75f614611669578163ba1aec551461164a578163ba281fc21461132e578163c00c9f7f14610f59578163c31c9c0714610f30578163c64f535114610e67578163c6e2e12114610e16578163d84db79614610d77578163d9ca21d514610d58578163da3da7a414610cca578163db006a751461092f578163dc220b5e146108b5578163e2bbb15814610677578163f289bb1e146105c4578163f2fde38b14610538578163f51ebfe2146104f4578163f63f67b11461030d575063fd440023146102e75780610012565b3461030957816003193601126103095760209060ff6014541690519015158152f35b5080fd5b9050602036600319011261043a5780359161032661422c565b61032e61464b565b3415801580916104eb575b61034290613417565b6104d7575b8261043e575b8361035884346148b1565b9261036161424f565b6103696142c4565b7f00000000000000000000000000000000000000000000000000000000000000006001600160a01b0316803b1561043a5783516340c10f1960e01b81523392810192835260208301869052918391839182908490829060400103925af1801561043057610418575b5050513481526020810192909252604082015233907f91ede45f04a37a7c170f5c1207df3b6bc748dc1e04ad5e917a241d0f52feada39080606081015b0390a26001815580f35b61042190612f04565b61042c5783386103d1565b8380fd5b83513d84823e3d90fd5b8280fd5b815481516323b872dd60e01b81523381850190815230602080830191909152604082018790529192839182900360600190829089906001600160a01b03165af180156104cd5761049e575b5061049683600954612dfe565b60095561034d565b6104bf9060203d6020116104c6575b6104b78183612f82565b8101906133ff565b5038610489565b503d6104ad565b82513d87823e3d90fd5b6104e334600854612dfe565b600855610347565b50831515610339565b505034610309578160031936011261030957517f00000000000000000000000000000000000000000000000000000000000000006001600160a01b03168152602090f35b90503461043a57602036600319011261043a57610553612cce565b9061055c614118565b6001600160a01b039182169283156105ae575050600154826001600160601b0360a01b821617600155167f8be0079c531659141344cd1fd0a4f28419497f9722a3daafe3b4186f6b6457e0600080a380f35b51631e4fbdf760e01b8152908101849052602490fd5b90503461043a57602036600319011261043a5780359167ffffffffffffffff9182841161067357366023850112156106735783013591821161042c57366024838501011161042c577f883eb0025fefb926f272994500e18b929e77f4b0b485820f44d91d485fe431dd92602492610639614118565b600160ff1960145416176014558083519485936020855282602086015201848401378181018301869052601f01601f19168101030190a180f35b8480fd5b9190503461043a578060031936011261043a5781359160243561069861422c565b6106a061464b565b8315801580916108ac575b6106b490613417565b61082c575b806107a3575b846106ca82866148b1565b926106d361424f565b6106db6142c4565b7f00000000000000000000000000000000000000000000000000000000000000006001600160a01b0316803b1561043a5785516340c10f1960e01b81523392810192835260208301869052918391839182908490829060400103925af1801561079957610785575b505091519283526020830191909152604082015233907f91ede45f04a37a7c170f5c1207df3b6bc748dc1e04ad5e917a241d0f52feada390806060810161040e565b61078e90612f04565b610673578438610743565b85513d84823e3d90fd5b815483516323b872dd60e01b8152338185019081523060208083019190915260408201859052919283918290036060019082908a906001600160a01b03165af1801561082257610803575b506107fb81600954612dfe565b6009556106bf565b61081b9060203d6020116104c6576104b78183612f82565b50386107ee565b84513d88823e3d90fd5b60035483516323b872dd60e01b8152338482019081523060208083019190915260408201889052919283918290036060019082908a906001600160a01b03165af180156108225761088d575b5061088584600854612dfe565b6008556106b9565b6108a59060203d6020116104c6576104b78183612f82565b5038610878565b508115156106ab565b9190503461043a57602036600319011261043a5781359182101561043a5760207f89dcb4af398e88cab6867b7f8a4a5fd09d1afa98e736ca3061309ca696e165a0916108ff614118565b6005805460ff60a01b191660a086901b60ff60a01b1617905561092184612d54565b54908160065551908152a280f35b90503461043a576020908160031936011261042c5780359161094f61422c565b61095761464b565b8215610c7e5783516370a0823160e01b815233838201526001600160a01b037f00000000000000000000000000000000000000000000000000000000000000008116939092918281602481885afa8015610c035786918991610c4d575b5010610c0d5785516318160ddd60e01b81529282848381885afa938415610c03578894610bd0575b50610a026109f5856109f089600854612e2e565b612e41565b946109f088600954612e2e565b94610a0d868661466c565b803b15610bcc578751632770a7eb60e21b8152338482019081526020810189905290918a9183919082908490829060400103925af18015610baf57610bb9575b5083610b3f575b84610a9a575b50509351928352602083015260408201523391507f484c40561359f3e3b8be9101897f8680aa82fbe1df9fd9038e0dbc628403264690806060810161040e565b8154875163a9059cbb60e01b815233938101938452602084018790529284928492169082908b90829060400103925af18015610b3557917f484c40561359f3e3b8be9101897f8680aa82fbe1df9fd9038e0dbc628403264695969161040e93610b17575b5050610b0c84600954612e21565b600955949338610a5a565b81610b2d92903d106104c6576104b78183612f82565b503880610afe565b86513d89823e3d90fd5b600354875163a9059cbb60e01b8152338482019081526020810187905290918591839185169082908d90829060400103925af18015610baf57610b92575b50610b8a84600854612e21565b600855610a54565b610ba890843d86116104c6576104b78183612f82565b5038610b7d565b88513d8b823e3d90fd5b610bc590989198612f04565b9638610a4d565b8880fd5b9093508281813d8311610bfc575b610be88183612f82565b81010312610bf8575192386109dc565b8780fd5b503d610bde565b87513d8a823e3d90fd5b8160649287519262461bcd60e51b845283015260248201527f4475616c5374616b696e673a20696e73756666696369656e74207368617265736044820152fd5b809250848092503d8311610c77575b610c668183612f82565b81010312610bf857859051386109b4565b503d610c5c565b835162461bcd60e51b815291820152602160248201527f4475616c5374616b696e673a20696e76616c696420736861726520616d6f756e6044820152601d60fa1b606482015260849150fd5b90503461043a57602036600319011261043a57610ce5612cce565b610ced614118565b6001600160a01b0316918215610d155750506001600160601b0360a01b600554161760055580f35b906020606492519162461bcd60e51b8352820152601d60248201527f4475616c5374616b696e673a20696e76616c696420636f6e74726163740000006044820152fd5b5050346103095781600319360112610309576020906010549051908152f35b83833461030957806003193601126103095782358381101561043a57602435610d9e614118565b80610da883612d54565b5560ff60055460a01c1685811015610e03577f5590d4258489474a4dc26e320befe1b6918f2616a271965c3b29e3c1d24090229495508214610dfa575b610df183518093612d31565b6020820152a180f35b80600655610de5565b634e487b7160e01b855260218652602485fd5b8334610e645780600319360112610e6457610e2f614118565b60ff1960145416601455806016557f9c748b2aae78ba506bf5b771078ce3d48988ff1522dfe7e36c8e42eb1d6193dd8180a180f35b80fd5b9190503461043a578060031936011261043a57610e82612cce565b906024359182151580930361067357610e99614118565b6001600160a01b0316928315610eee57507f92e1ad3ab46806527f335d72830537beddd1dbccf783b93e1787f6389b62342e916020918486526013835280862060ff1981541660ff841617905551908152a280f35b6020606492519162461bcd60e51b8352820152601b60248201527f4475616c5374616b696e673a20696e76616c696420726f7574657200000000006044820152fd5b505034610309578160031936011261030957600e5490516001600160a01b039091168152602090f35b90503461043a578260031936011261043a57610f7361422c565b60ff60015460a01c166112ec57805482516370a0823160e01b808252308285015247946001600160a01b03939092602092909183908390602490829089165afa9182156111c15788926112bd575b5087838087600554168988518095819363372500ab60e01b83525af19182611294575b5050611219575050859386955b87838087600554168588518095819363a372630d60e01b83525af191826111f0575b50506111cb575b5086938561113f575b86611097575b5050508161103a575b846001815580f35b7f99493ed95c6178f21c5314b725b6169fb3786483fada073063ac1c5c121c401a9361108b9161106861424f565b6110706142c4565b51938493846040919493926060820195825260208201520152565b0390a138808080611032565b91809394926110a888600954612dfe565b60095560025416855192838092639e25545160e01b82525afa9283156111355787936110f7575b5050670de0b6b3a76400006110e76110ee9387612e2e565b0490612dfe565b90388080611029565b90809350813d831161112e575b61110e8183612f82565b8101031261112a57905190670de0b6b3a76400006110e76110cf565b8580fd5b503d611104565b84513d89823e3d90fd5b935061114d85600854612dfe565b6008558082856002541685519283809263471d715560e11b82525afa9081156111c1578891611192575b5061118b670de0b6b3a76400009187612e2e565b0493611023565b90508281813d83116111ba575b6111a98183612f82565b81010312610bf8575161118b611177565b503d61119f565b84513d8a823e3d90fd5b946111e3816111de6111e9949847612e21565b612e21565b90612dfe565b933861101a565b813d8311611212575b6112038183612f82565b81010312610bcc578338611013565b503d6111f9565b6112268796929647612e21565b958386845416926024875180958193825230888301525afa801561128a57899061125b575b6112559250612e21565b95610ff1565b508382813d8311611283575b6112718183612f82565b81010312610bcc57611255915161124b565b503d611267565b85513d8b823e3d90fd5b813d83116112b6575b6112a78183612f82565b81010312610bcc578338610fe4565b503d61129d565b9091508281813d83116112e5575b6112d58183612f82565b81010312610bf857519038610fc1565b503d6112cb565b6020606492519162461bcd60e51b8352820152601c60248201527f4475616c5374616b696e673a20636f6e747261637420706175736564000000006044820152fd5b828434610e645780600319360112610e645761134861303e565b9161135161303e565b90805161135d81612f2e565b60028152602082368284013782519361137585612f2e565b60028552833683870137835161138a81612f66565b600a81526921b7b932902a37b5b2b760b11b838201526113a988613073565b526113b387613073565b5083516113bf81612f66565b6011815270426974636f696e2028436f726544414f2960781b838201526113e588613096565b526113ef87613096565b5083516113fb81612f66565b88815263434f524560e01b8382015261141382613073565b5261141d81613073565b50835161142981612f66565b600381526242544360e81b8382015261144182613096565b5261144b81613096565b50611454614144565b95866114b3575b61148188886114a98961149b8a8a61148e8b8b84519a8b9a60a08c5260a08c0190612d6d565b918a8303908b0152612d6d565b9187830390880152612dca565b908482036060860152612dca565b9060808301520390f35b600854600254865163471d715560e11b81526001600160a01b03909116929185828d81875afa918215611640578392611611575b506114fc670de0b6b3a7640000928392612e2e565b04928b86600954928a5192838092639e25545160e01b82525afa9081156116075784916115d8575b5061152e91612e2e565b048261153989613073565b528061154489613096565b5261271092838102908082048514901517156115c5578961156491612e41565b61156d87613073565b528281029281840414901517156115b2575061148198506114a995949261149b949261159c8961148e94612e41565b6115a585613096565b529294509294955061145b565b634e487b7160e01b815260118a52602490fd5b634e487b7160e01b835260118c52602483fd5b90508681813d8311611600575b6115ef8183612f82565b8101031261042c575161152e611524565b503d6115e5565b89513d86823e3d90fd5b9091508581813d8311611639575b6116298183612f82565b8101031261043a5751908c6114e7565b503d61161f565b88513d85823e3d90fd5b505034610309578160031936011261030957602090600a549051908152f35b5050346103095781600319360112610309576020906012549051908152f35b5050346103095781600319360112610309576020906018549051908152f35b5050346103095781600319360112610309576080916116c4613463565b91600654906116d1612e61565b60038452600760205281842054909390851061170957506003935b6116f882518096612d31565b602085015283015215156060820152f35b6002815281812054851061172057506002936116ec565b6001815281812054851061173757506001936116ec565b936116ec565b90503461043a57602036600319011261043a5780359161175b614118565b6064831161176b57505060125580f35b906020606492519162461bcd60e51b8352820152601c60248201527f4475616c5374616b696e673a2072657761726420746f6f2068696768000000006044820152fd5b505034610309578160031936011261030957602090600f549051908152f35b828434610e645780600319360112610e64578151916117eb83612f66565b601c83527f434f52452b425443204475616c205374616b696e67204261736b657400000000602084015280519061182182612f4a565b606a82527f4175746f6d61746564206475616c207374616b696e672073747261746567792060208301527f74686174206d61696e7461696e73206f7074696d616c20434f52453a42544320818301527f726174696f7320666f72206d6178696d756d20436f726544414f207374616b696060830152696e67207265776172647360b01b608083015280516118b481612f66565b60068152654d656469756d60d01b602082015260ff60055460a01c1693868510156119815761191286611940878761192d888860038503611944576119206118fe6104b096614032565b948351998a9960a08b5260a08b0190612d0c565b9089820360208b0152612d0c565b9187830390880152612d0c565b9160608501528382036080850152612d0c565b0390f35b6002850361195b576119206118fe6103e896614032565b60018503611972576119206118fe61035296614032565b6119206118fe6102bc96614032565b634e487b7160e01b815260218752602490fd5b839150346103095782600319360112610309576119af612cce565b6119b7614118565b6001549160ff8360a01c1615611a3c57845163a9059cbb60e01b81526001600160a01b039384169181019182526024356020808401919091529093869391928592908390036040019183918891165af1908115611a335750611a17575080f35b611a2f9060203d6020116104c6576104b78183612f82565b5080f35b513d84823e3d90fd5b608490602086519162461bcd60e51b83528201526024808201527f4475616c5374616b696e673a20636f6e7472616374206d7573742062652070616044820152631d5cd95960e21b6064820152fd5b90503461043a57602036600319011261043a57803591611aa9614118565b6107d08311611aba575050600c5580f35b906020606492519162461bcd60e51b8352820152601f60248201527f4475616c5374616b696e673a207468726573686f6c6420746f6f2068696768006044820152fd5b50503461030957816003193601126103095760015490516001600160a01b039091168152602090f35b505034610309578160031936011261030957602090600d549051908152f35b5050346103095781600319360112610309576020906019549051908152f35b50503461030957816003193601126103095760207f62e78cea01bee320cd4e420270b5ea74000d11b0c9f74754ebdbfc544b05a25891611ba2614118565b611baa61464b565b6001805460ff60a01b1916600160a01b17905551338152a180f35b8334610e645780600319360112610e6457611bde61422c565b611be66130d5565b6001815580f35b50503461030957816003193601126103095760025490516001600160a01b039091168152602090f35b90503461043a57602036600319011261043a57611c31612cce565b611c39614118565b6001600160a01b0316918215611c615750506001600160601b0360a01b600254161760025580f35b906020606492519162461bcd60e51b8352820152601f60248201527f4475616c5374616b696e673a20696e76616c69642070726963652066656564006044820152fd5b505034610309578160031936011261030957602090611cce60ff60055460a01c1691518092612d31565bf35b8334610e645780600319360112610e6457611ce9614118565b600180546001600160a01b0319811690915581906001600160a01b03167f8be0079c531659141344cd1fd0a4f28419497f9722a3daafe3b4186f6b6457e08280a380f35b505034610309578160031936011261030957602090600b549051908152f35b5050346103095781600319360112610309576020906008549051908152f35b5050346103095781600319360112610309576020906011549051908152f35b5050346103095781600319360112610309576020906015549051908152f35b828434610e645780600319360112610e64576008549160095490600a54600b5491611dd2614144565b81516318160ddd60e01b808252602097929692917f00000000000000000000000000000000000000000000000000000000000000006001600160a01b0316919089818d81865afa908115611f21578491611ef4575b5015611ede57670de0b6b3a76400009a8b89029b898d041489151715611ecb5790899186518094819382525afa918215611ec0578092611e8e575b5050611e709060c099612e41565b955b82519788528701528501526060840152608083015260a0820152f35b9091508782813d8311611eb9575b611ea68183612f82565b81010312610e6457505188611e70611e62565b503d611e9c565b8451903d90823e3d90fd5b634e487b7160e01b845260119052602483fd5b50505060c09750670de0b6b3a764000095611e72565b90508981813d8311611f1a575b611f0b8183612f82565b8101031261042c57518c611e27565b503d611f01565b86513d86823e3d90fd5b50503461030957816003193601126103095760209060ff60015460a01c1690519015158152f35b90503461043a5760208060031936011261042c57611f6e612cce565b83516370a0823160e01b81526001600160a01b03918216818501527f0000000000000000000000000000000000000000000000000000000000000000909116949093909283928392918391908282896024818d5afa988915612252578199612223575b508815998a15806121c2575b612000575b50505060a09750825196875286015284015260608301526080820152f35b9350945094509450612019612013614144565b87612e2e565b82516318160ddd60e01b80825294919087818881875afa9081156121b8578391612189575b5061204891612e41565b9161205560085489612e2e565b845186815288818981865afa908115611f2157849161215a575b5061207991612e41565b946120866009548a612e2e565b855182815289818a81875afa908115612150578591612121575b506120aa91612e41565b966127109a8b8b029b8b8d04141715611ecb5790889186518094819382525afa918215611ec05780926120ef575b50506120e69060a098612e41565b94388080611fe2565b9091508682813d831161211a575b6121078183612f82565b81010312610e64575051876120e66120d8565b503d6120fd565b90508981813d8311612149575b6121388183612f82565b8101031261067357516120aa6120a0565b503d61212e565b87513d87823e3d90fd5b90508881813d8311612182575b6121718183612f82565b8101031261042c575161207961206f565b503d612167565b90508781813d83116121b1575b6121a08183612f82565b8101031261043a575161204861203e565b503d612196565b85513d85823e3d90fd5b5085516318160ddd60e01b815284818581855afa9081156122195783916121ec575b501515611fdd565b90508481813d8311612212575b6122038183612f82565b8101031261043a5751386121e4565b503d6121f9565b87513d85823e3d90fd5b9098508281813d831161224b575b61223b8183612f82565b81010312610bcc57519738611fd1565b503d612231565b508451903d90823e3d90fd5b5050346103095781600319360112610309576020906006549051908152f35b9190503461043a578260031936011261043a576125759261258f611940926122a361300c565b9461258282516122b281612f4a565b828152602090608036838301378451936122cb85612f4a565b8452608036838601376122dc61300c565b9685516122e881612f66565b60098152682130b9b2902a34b2b960b91b848201526123068b613073565b526123108a613073565b50855161231c81612f66565b600a8152692137b7b9ba102a34b2b960b11b8482015261233b8b613096565b526123458a613096565b50855161235181612f66565b600a81526929bab832b9102a34b2b960b11b848201526123708b6130a6565b5261237a8a6130a6565b50855161238681612f66565b600c81526b29b0ba37b9b434902a34b2b960a11b848201526123a78b6130b6565b526123b18a6130b6565b50806123bc83613073565b526107d06123c983613096565b526117706123d6836130a6565b52613e806123e3836130b6565b526123ed85613073565b5260966123f985613096565b5261012c612406856130a6565b526101f4612413856130b6565b52845161241f81612f66565b601881527f5374616e64617264207374616b696e67207265776172647300000000000000008382015261245188613073565b5261245b87613073565b50845161246781612f2e565b602c81527f456e68616e6365642072657761726473207769746820322c3030303a3120434f838201526b52453a42544320726174696f60a01b9081878201526124af89613096565b526124b988613096565b5085516124c581612f2e565b602b81527f5072656d69756d2072657761726473207769746820362c3030303a3120434f52848201526a453a42544320726174696f60a81b8782015261250a896130a6565b52612514886130a6565b5085519061252182612f2e565b602c82527f4d6178696d756d207265776172647320776974682031362c3030303a3120434f8483015286820152612557886130b6565b52612561876130b6565b508451998a9960808b5260808b0190612d6d565b91898303908a0152612dca565b9186830390870152612dca565b908382036060850152612d6d565b828434610e64576020366003190112610e6457823592831015610e6457506125c6602092612d54565b549051908152f35b90503461043a57602036600319011261043a578035916125ec614118565b61070883106125fd57505060115580f35b906020606492519162461bcd60e51b8352820152601f60248201527f4475616c5374616b696e673a20696e74657276616c20746f6f2073686f7274006044820152fd5b5050346103095760203660031901126103095760209160ff9082906001600160a01b0361266b612cce565b1681526013855220541690519015158152f35b505034610309578160031936011261030957601a5490516001600160a01b039091168152602090f35b83903461030957602036600319011261030957356126c3614118565b6126d16103e8821115612fc0565b600d5580f35b8334610e64576020366003190112610e64576126f1612cce565b6126f9614118565b60018060a01b03166001600160601b0360a01b600e541617600e5580f35b90503461043a578260031936011261043a57612731614118565b6001549060ff8260a01c1615612779575060ff60a01b1916600155513381527f5db9ee0a495bf2e6ff9c91a7834c1ba4fdd244a5e8aa4e537bd38aeae4b073aa90602090a180f35b8251638dfc202b60e01b8152fd5b5050346103095781600319360112610309576020906017549051908152f35b505034610309578160031936011261030957602090600c549051908152f35b828434610e64576020928360031936011261030957600254835163471d715560e11b81528235916001600160a01b031686828581845afa918215612a235784929188918793612a2d575b508751639e25545160e01b815293849182905afa918215612a235785926129f4575b5060065494851561296857670de0b6b3a7640000948585029480860487149015171561295557505061288161294a9361287b8694611940976128758a608097612e2e565b04612dfe565b90612e41565b9161288c8684612e2e565b0495612908612931604a60ff60055460a01c16986128b26128ac8b614032565b916140f6565b8c86519586936d027b83a34b6b4bd32b2103337b9160951b838601526128e18151809285602e89019101612ce9565b8401916a0103a34b2b9103bb4ba34160ad1b602e8401528351938491603985019101612ce9565b01703a3120434f52453a42544320726174696f60781b603982015203602a810184520182612f82565b925b815198899889528801528601526080850190612d0c565b916060840190612d31565b634e487b7160e01b825260119052602490fd5b93959450909160011c94670de0b6b3a764000095868102968188041490151715611ecb57509160806129aa61294a936129a46119409689612e41565b97612e41565b919480516129b781612f2e565b602681527f457175616c20616c6c6f636174696f6e20666f72206261736520746965722073898201526574616b696e6760d01b8282015292612933565b9091508681813d8311612a1c575b612a0c8183612f82565b8101031261067357519087612831565b503d612a02565b86513d87823e3d90fd5b9250925081813d8311612a58575b612a458183612f82565b810103126106735751839187908961280f565b503d612a3b565b5050346103095781600319360112610309576020906016549051908152f35b50503461030957816003193601126103095760055490516001600160a01b039091168152602090f35b90503461043a578260031936011261043a57303303612b8e575060807f47045cf8e072c0909f9cafb893395a0cd194264bdbc4f1f4ab99166996807ef091612aed613463565b600654859182919081811015612b535750509091612b096138b3565b80612b3c575b5090612b32915b60ff60055460a01c169181519485526020850152830190612d31565b326060820152a180f35b9250612b329150612b4c83613a48565b9291612b0f565b11612b63575b612b329192612b16565b612b6b613496565b80612b77575b50612b59565b9050612b329150612b8781613569565b9091612b71565b6020606492519162461bcd60e51b8352820152601e60248201527f4475616c5374616b696e673a20696e7465726e616c2066756e6374696f6e00006044820152fd5b50503461030957816003193601126103095760a09060ff601454169060105490601654600f5491612bff612e61565b93815195151586526020860152840152606083015215156080820152f35b505034610309578160031936011261030957602090601b549051908152f35b50503461030957816003193601126103095760035490516001600160a01b039091168152602090f35b5050346103095781600319360112610309576020906009549051908152f35b505034610309578160031936011261030957602090612ca1612e61565b90519015158152f35b84913461043a578260031936011261043a57546001600160a01b0316815260209150f35b600435906001600160a01b0382168203612ce457565b600080fd5b60005b838110612cfc5750506000910152565b8181015183820152602001612cec565b90602091612d2581518092818552858086019101612ce9565b601f01601f1916010190565b906004821015612d3e5752565b634e487b7160e01b600052602160045260246000fd5b6004811015612d3e576000526007602052604060002090565b90808251908181526020809101926020808460051b8301019501936000915b848310612d9c5750505050505090565b9091929394958480612dba600193601f198682030187528a51612d0c565b9801930193019194939290612d8c565b90815180825260208080930193019160005b828110612dea575050505090565b835185529381019392810192600101612ddc565b91908201809211612e0b57565b634e487b7160e01b600052601160045260246000fd5b91908203918211612e0b57565b81810292918115918404141715612e0b57565b8115612e4b570490565b634e487b7160e01b600052601260045260246000fd5b60065480158015612ef8575b612ef257612e8060105460115490612dfe565b4210612ef257612e8e613463565b8180821115612ec557612ea091612e21565b9061271091828102928184041490151715612e0b57612ebe91612e41565b600c541090565b90612ecf91612e21565b9061271091828102928184041490151715612e0b57612eed91612e41565b612ebe565b50600090565b5060ff60145416612e6d565b67ffffffffffffffff8111612f1857604052565b634e487b7160e01b600052604160045260246000fd5b6060810190811067ffffffffffffffff821117612f1857604052565b60a0810190811067ffffffffffffffff821117612f1857604052565b6040810190811067ffffffffffffffff821117612f1857604052565b90601f8019910116810190811067ffffffffffffffff821117612f1857604052565b67ffffffffffffffff8111612f1857601f01601f191660200190565b15612fc757565b60405162461bcd60e51b815260206004820152601e60248201527f4475616c5374616b696e673a20736c69707061676520746f6f206869676800006044820152606490fd5b6040519061301982612f4a565b600482528160005b6080811061302d575050565b806060602080938501015201613021565b6040906040519161304e83612f2e565b600283528260005b82811061306257505050565b806060602080938501015201613056565b8051156130805760200190565b634e487b7160e01b600052603260045260246000fd5b8051600110156130805760400190565b8051600210156130805760600190565b8051600310156130805760800190565b6000198114612e0b5760010190565b6130dd612e61565b156133ae5760145460009060ff81166133695760165460155411158061333d575b6132d75750303b15610e645760408051632df12e5160e01b81529091808260048183305af191826132c8575b50906131b7575061313c6016546130c6565b80601655426017556015541115613151575b50565b60607f955ab0bdc02be6b79ebc0fd3b6cf87b6d751525a0220e904b25323ad2544645d91600160ff1960145416176014557f526562616c616e636520657865637574696f6e206661696c656400000000000081519160208352601a6020840152820152a1565b90816016556131c7600f546130c6565b600f55426010556001546001600160a01b039290831633036131e857505050565b6127106131ff6131f6614144565b60125490612e2e565b0492831515806132bc575b613215575b50505050565b61322184600854612e21565b600855600354835163a9059cbb60e01b8152336004820152602481018690529291602091849160449183918691165af19081156132b15750613292575b50519081527f0cbcc38bb40a7b0940c989eac5abd480ff9917c824c1fd6b2e38227d92c4c70060203392a23880808061320f565b6132aa9060203d6020116104c6576104b78183612f82565b503861325e565b8351903d90823e3d90fd5b5083600854101561320a565b6132d190612f04565b3861312a565b6001915060ff1916176014557f955ab0bdc02be6b79ebc0fd3b6cf87b6d751525a0220e904b25323ad2544645d606060405160208152601b60208201527f546f6f206d616e7920726562616c616e6365206661696c7572657300000000006040820152a1565b506017546201518081018091116133555742106130fe565b634e487b7160e01b83526011600452602483fd5b60405162461bcd60e51b815260206004820152601f60248201527f4475616c5374616b696e673a20726562616c616e63696e6720706175736564006044820152606490fd5b60405162461bcd60e51b815260206004820152602360248201527f4475616c5374616b696e673a20726562616c616e63696e67206e6f74206e656560448201526219195960ea1b6064820152608490fd5b90816020910312612ce457518015158103612ce45790565b1561341e57565b60405162461bcd60e51b815260206004820152601f60248201527f4475616c5374616b696e673a206e6f206173736574732070726f7669646564006044820152606490fd5b6009548015612ef25760085490670de0b6b3a764000091828102928184041490151715612e0b5761349391612e41565b90565b6008548015612ef2576134cb906134ab613463565b50670de0b6b3a76400006134c460095460065490612e2e565b0490612e21565b60011c90565b156134d857565b60405162461bcd60e51b815260206004820152601b60248201527f4475616c5374616b696e673a206e6f207377617020726f7574657200000000006044820152606490fd5b1561352457565b60405162461bcd60e51b815260206004820152601d60248201527f4475616c5374616b696e673a20756e7472757374656420726f757465720000006044820152606490fd5b600e549091906001600160a01b03908116906135868215156134d1565b600091808352602092601384526040916135a560ff848420541661351d565b600854871161386f57600254835163471d715560e11b81526004929186169087818581855afa908115612a235784918991879161383c575b506135e8908c612e2e565b92875192838092639e25545160e01b82525afa908115612a2357859161380d575b5061361391612e41565b600d5490612710918203908282116137fa579061362f91612e2e565b04978560035416878651809281888161366b8863095ea7b360e01b9a8b84528c840160209093929193604081019460018060a01b031681520152565b03925af18015612a23576137dd575b50858354168551906370a0823160e01b80835230868401528983602481855afa9283156137d357908a91889461379e575b5060248951809481938252308a8301525afa9081156137945790899594939291879161375b575b50916136f06136e76136f89360449695612e21565b9c8d1015612fc0565b600854612e21565b6008556137078a600954612dfe565b60095584876003541697600e5416978751988995869485528401528160248401525af191821561375157505061373b575050565b8161314e92903d106104c6576104b78183612f82565b51903d90823e3d90fd5b8681939495969792503d831161378d575b6137768183612f82565b8101031261112a57518894939291906136f06136d2565b503d61376c565b87513d88823e3d90fd5b8281939295503d83116137cc575b6137b68183612f82565b810103126137c85789905192386136ab565b8680fd5b503d6137ac565b88513d89823e3d90fd5b6137f390883d8a116104c6576104b78183612f82565b503861367a565b634e487b7160e01b865260118552602486fd5b90508781813d8311613835575b6138248183612f82565b810103126106735751613613613609565b503d61381a565b92505081813d8311613868575b6138538183612f82565b8101031261067357876135e8859251906135dd565b503d613849565b825162461bcd60e51b815260048101869052601e60248201527f4475616c5374616b696e673a20696e73756666696369656e7420434f524500006044820152606490fd5b6009548015612ef257670de0b6b3a76400006138d160065483612e2e565b04600854808211156139d1576138e691612e21565b60025460405163471d715560e11b8152916020916001600160a01b03168284600481845afa938415613996576000946139a2575b508260049160405192838092639e25545160e01b82525afa92831561399657600093613964575b5050613950926109f091612e2e565b8181111561395f575060011c90565b905090565b9080929350813d831161398f575b61397c8183612f82565b81010312612ce4575190826109f0613941565b503d613972565b6040513d6000823e3d90fd5b9093508281813d83116139ca575b6139ba8183612f82565b81010312612ce45751928261391a565b503d6139b0565b505050600090565b600060443d1061349357604051600319913d83016004833e815167ffffffffffffffff918282113d602484011117613a3757818401948551938411613a3f573d85010160208487010111613a37575061349392910160200190612f82565b949350505050565b50949350505050565b600e546001600160a01b03169190613a618315156134d1565b826000526013602052613a7b60ff6040600020541661351d565b6009548111613fed57600254604051639e25545160e01b8152906001600160a01b0316602082600481845afa91821561399657600092613fb8575b506020613ac560049385612e2e565b916040519384809263471d715560e11b82525afa90811561399657600091613f82575b613af29250612e41565b600d5490612710918203828111612e0b57613b5592613b148592602094612e2e565b049560018060a01b036004541690600060405180968195829463095ea7b360e01b84526004840160209093929193604081019460018060a01b031681520152565b03925af1801561399657613f63575b506003546040516370a0823160e01b80825230600483015292916001600160a01b0316602082602481845afa91821561399657600092613f2f575b50600e546001600160a01b0316600081815260136020526040902054613bc79060ff1661351d565b60405191613bd483612f2e565b60028352602083019060403683376004546001600160a01b0316613bf785613073565b52613c0184613096565b5261012c42014211612e0b576040516338ed173960e01b8152600481018690526024810189905260a06044820152925160a48401819052839160c483019160005b818110613f0d575050509181600081819530606483015261012c4201608483015203925af19081613e7f575b50613d7f57600060033d11613d6d575b6308c379a014613cdf575b60405162461bcd60e51b815260206004820152602860248201527f4475616c5374616b696e673a2073776170206661696c6564202d20756e6b6e6f6044820152673bb71032b93937b960c11b6064820152608490fd5b613ce76139d9565b80613cf25750613c89565b613d6990613d49603b60405180937f4475616c5374616b696e673a2073776170206661696c6564202d2000000000006020830152613d398151809260208686019101612ce9565b810103601b810184520182612f82565b60405162461bcd60e51b8152602060048201529182916024830190612d0c565b0390fd5b5060046000803e60005160e01c613c7e565b600354604051938452306004850152602090849060249082906001600160a01b03165afa92831561399657600093613e49575b50613dc3613dcc91613dd494612e21565b94851015612fc0565b600954612e21565b600955613de382600854612dfe565b60085560048054600e5460405163095ea7b360e01b81526001600160a01b0391821693810193909352600060248401819052602092849260449284929091165af1801561399657613e315750565b61314e9060203d6020116104c6576104b78183612f82565b92506020833d602011613e77575b81613e6460209383612f82565b81010312612ce457915191613dc3613db2565b3d9150613e57565b3d806000833e613e8f8183612f82565b810190602081830312612ce457805167ffffffffffffffff91828211612ce4570182601f82011215612ce4578051918211612f18576020808360051b9360405190613edc83870183612f82565b81520192820101928311612ce457602001905b828210613efd575050613c6e565b8151815260209182019101613eef565b82516001600160a01b0316845286945060209384019390920191600101613c42565b9091506020813d602011613f5b575b81613f4b60209383612f82565b81010312612ce457519038613b9f565b3d9150613f3e565b613f7b9060203d6020116104c6576104b78183612f82565b5038613b64565b90506020823d602011613fb0575b81613f9d60209383612f82565b81010312612ce457613af2915190613ae8565b3d9150613f90565b91506020823d602011613fe5575b81613fd360209383612f82565b81010312612ce4579051906020613ab6565b3d9150613fc6565b60405162461bcd60e51b815260206004820152601d60248201527f4475616c5374616b696e673a20696e73756666696369656e74204254430000006044820152606490fd5b6004811015612d3e57600381146140b55760028114614093576001146140725760405161405e81612f66565b60048152634261736560e01b602082015290565b60405161407e81612f66565b6005815264109bdbdcdd60da1b602082015290565b506040516140a081612f66565b600581526429bab832b960d91b602082015290565b506040516140c281612f66565b60078152665361746f73686960c81b602082015290565b604051906140e682612f66565b60018252600360fc1b6020830152565b801561410f57670de0b6b3a76400006134939104614b5a565b506134936140d9565b6001546001600160a01b0316330361412c57565b60405163118cdaa760e01b8152336004820152602490fd5b60085460025460405163471d715560e11b81526001600160a01b0390911691602091908282600481875afa918215613996576000926141fd575b50614193670de0b6b3a7640000928392612e2e565b04916004816009549560405192838092639e25545160e01b82525afa918215613996576000926141cd575b50506110e79061349394612e2e565b90809250813d83116141f6575b6141e48183612f82565b81010312612ce45751836110e76141be565b503d6141da565b9091508281813d8311614225575b6142158183612f82565b81010312612ce45751903861417e565b503d61420b565b60026000541461423d576002600055565b604051633ee5aeb560e01b8152600490fd5b614257612e61565b156142c257614264613463565b600654908181101561429857505061427a6138b3565b80614288575b505b42601055565b61429190613a48565b5038614280565b1115614282576142a6613496565b806142b2575b50614282565b6142bb90613569565b50386142ac565b565b6008546142d6600091600a5490612e21565b906142e6600954600b5490612e21565b82159081158080614642575b80614637575b156144b157508390809460065493849261431c670de0b6b3a7640000968792612e2e565b049482861015614477575050505050905b8115158061446e575b61433f57505050565b6004805460055460405163095ea7b360e01b8082526001600160a01b0392831694820194909452602481018790526020969195919287908290604490829089908b165af1801561446357614446575b508460055416803b15610673578480839260246040518095819363dfbda69b60e01b83528960048401525af19182614432575b505061440c575050839060448460045416946005541691846040519687948593845260048401528160248401525af1908115614400575061373b575050565b604051903d90823e3d90fd5b9150925061442d93506144229150600a54612dfe565b600a55600b54612dfe565b600b55565b61443b90612f04565b6106735784386143c1565b61445c90873d89116104c6576104b78183612f82565b503861438e565b6040513d87823e3d90fd5b50821515614336565b91809496975082919395500292830414171561449d579061449791612e41565b9161432d565b634e487b7160e01b84526011600452602484fd5b909391506145d1575b50816144c4575050565b6004805460055460405163095ea7b360e01b8082526001600160a01b0392831694820194909452602481018690526020959194939286908290604490829088908a165af180156145c6576145a9575b508360055416803b1561042c578380809260246040518095819363615c239160e11b83528860048401525af19182614595575b50506145845750839060448460045416946005541691846040519687948593845260048401528160248401525af1908115614400575061373b575050565b9250505061442d9150600b54612dfe565b61459e90612f04565b61042c578338614546565b6145bf90863d88116104c6576104b78183612f82565b5038614513565b6040513d86823e3d90fd5b6005546001600160a01b0316803b1561043a5782829160246040518094819363e230845960e01b83528160048401525af19081614624575b50156144ba5761461b90600a54612dfe565b600a55386144ba565b61463090939193612f04565b9138614609565b5060065415156142f8565b508115156142f2565b60ff60015460a01c1661465a57565b60405163d93c066560e01b8152600490fd5b600090801580159081806148a8575b8061489c575b80614890575b61478c575b5080614780575b614717575b508115158061470b575b6146aa575050565b6005546001600160a01b0316803b1561030957818091602460405180958193633312a03360e01b83528860048401525af191826146f7575b50506146eb5750565b61442d90600b54612e21565b6147018291612f04565b610e6457806146e2565b5081600b5410156146a2565b6005546001600160a01b0316803b1561043a578280809260246040518095819363f780777d60e01b83528860048401525af1918261476c575b5050156146985761476390600a54612e21565b600a5538614698565b61477590612f04565b61043a578238614750565b5080600a541015614693565b61271090818402908482048314171561487c57600a546147ab91612e41565b81860286810483148715171561486857600b546147c791612e41565b8082101561486157505b6005546001600160a01b0316803b1561112a57858091602460405180948193632b2d81b160e21b83528760048401525af1908161484e575b50614814575061468c565b925092505061442d9250614846600a5492806148308486612e2e565b049061483f600b549485612e2e565b0493612e21565b600a55612e21565b61485a90969196612f04565b9438614809565b90506147d1565b634e487b7160e01b86526011600452602486fd5b634e487b7160e01b85526011600452602485fd5b5084600b541015614687565b5082600a541015614681565b5084151561467b565b604080516318160ddd60e01b8082526004946001600160a01b03947f0000000000000000000000000000000000000000000000000000000000000000861693602093929084818a81895afa908115614a2d57600091614b2d575b5015614a7957614919614144565b600254875163471d715560e11b81529198169285828b81875afa918215614a6e579186918b9493600092614a38575b509061495391612e2e565b93885193848092639e25545160e01b82525afa918215614a2d579085949392916000926149f8575b50916111e361499392670de0b6b3a764000094612e2e565b049685518095819382525afa9283156149ee57506000926149be575b50506109f09061349393612e2e565b90809250813d83116149e7575b6149d58183612f82565b81010312612ce45751826109f06149af565b503d6149cb565b513d6000823e3d90fd5b858194969293503d8311614a26575b614a118183612f82565b81010312612ce45790518493916111e361497b565b503d614a07565b87513d6000823e3d90fd5b945091905083813d8311614a67575b614a518183612f82565b81010312612ce45761495386918b945191614948565b503d614a47565b88513d6000823e3d90fd5b600254865163471d715560e11b815291989716969095945092915081858481895afa948515614b2257600095614af3575b508190614ac1670de0b6b3a7640000968792612e2e565b0495845193848092639e25545160e01b82525afa9283156149ee57506000926141cd5750506110e79061349394612e2e565b9094508181813d8311614b1b575b614b0b8183612f82565b81010312612ce457519381614aaa565b503d614b01565b84513d6000823e3d90fd5b90508481813d8311614b53575b614b448183612f82565b81010312612ce457513861490b565b503d614b3a565b801561410f57600081805b614bed5750614b7381612fa4565b90614b816040519283612f82565b808252601f19614b9082612fa4565b013660208401375b80928015614be6576000198201918211612e0b578193600a926030908484068201809211612e0b57855111156130805760f81b6001600160f81b03191660001a908401601f01530491614b98565b5050905090565b90614bf9600a916130c6565b910480614b6556fea26469706673582212201eb303663193d264c9f4c5e39c663ac7447489776d159af73daa00ac33e5fa3164736f6c63430008160033",
  "linkReferences": {},
  "deployedLinkReferences": {}
}